{"contracts/EngagementReward.sol":{"EngagementReward":{"abi":[{"inputs":[{"internalType":"address","name":"_creatorToken","type":"address"}],"stateMutability":"nonpayable","type":"constructor"},{"inputs":[{"internalType":"address","name":"owner","type":"address"}],"name":"OwnableInvalidOwner","type":"error"},{"inputs":[{"internalType":"address","name":"account","type":"address"}],"name":"OwnableUnauthorizedAccount","type":"error"},{"inputs":[],"name":"ReentrancyGuardReentrantCall","type":"error"},{"anonymous":false,"inputs":[{"indexed":true,"internalType":"address","name":"user","type":"address"},{"indexed":true,"internalType":"bytes32","name":"contentId","type":"bytes32"},{"indexed":false,"internalType":"enum CreatorToken.RewardType","name":"rewardType","type":"uint8"},{"indexed":false,"internalType":"uint256","name":"amount","type":"uint256"}],"name":"EngagementRewarded","type":"event"},{"anonymous":false,"inputs":[{"indexed":true,"internalType":"address","name":"previousOwner","type":"address"},{"indexed":true,"internalType":"address","name":"newOwner","type":"address"}],"name":"OwnershipTransferred","type":"event"},{"anonymous":false,"inputs":[{"indexed":false,"internalType":"enum CreatorToken.RewardType","name":"rewardType","type":"uint8"},{"indexed":false,"internalType":"uint256","name":"newRate","type":"uint256"}],"name":"RewardRateUpdated","type":"event"},{"inputs":[],"name":"MAX_ENGAGEMENTS_PER_USER","outputs":[{"internalType":"uint256","name":"","type":"uint256"}],"stateMutability":"view","type":"function"},{"inputs":[],"name":"creatorToken","outputs":[{"internalType":"contract CreatorToken","name":"","type":"address"}],"stateMutability":"view","type":"function"},{"inputs":[{"internalType":"uint256","name":"amount","type":"uint256"}],"name":"emergencyWithdraw","outputs":[],"stateMutability":"nonpayable","type":"function"},{"inputs":[],"name":"engagementCooldown","outputs":[{"internalType":"uint256","name":"","type":"uint256"}],"stateMutability":"view","type":"function"},{"inputs":[{"internalType":"bytes32","name":"","type":"bytes32"},{"internalType":"enum CreatorToken.RewardType","name":"","type":"uint8"}],"name":"engagementCounts","outputs":[{"internalType":"uint256","name":"","type":"uint256"}],"stateMutability":"view","type":"function"},{"inputs":[{"internalType":"bytes32","name":"contentId","type":"bytes32"}],"name":"getContentEngagement","outputs":[{"internalType":"uint256","name":"likes","type":"uint256"},{"internalType":"uint256","name":"comments","type":"uint256"},{"internalType":"uint256","name":"shares","type":"uint256"},{"internalType":"uint256","name":"remixes","type":"uint256"},{"internalType":"uint256","name":"totalEngagements","type":"uint256"}],"stateMutability":"view","type":"function"},{"inputs":[{"internalType":"bytes32","name":"contentId","type":"bytes32"},{"internalType":"enum CreatorToken.RewardType","name":"rewardType","type":"uint8"}],"name":"getEngagementCount","outputs":[{"internalType":"uint256","name":"","type":"uint256"}],"stateMutability":"view","type":"function"},{"inputs":[{"internalType":"enum CreatorToken.RewardType","name":"rewardType","type":"uint8"}],"name":"getRewardRate","outputs":[{"internalType":"uint256","name":"","type":"uint256"}],"stateMutability":"view","type":"function"},{"inputs":[{"internalType":"address","name":"","type":"address"},{"internalType":"bytes32","name":"","type":"bytes32"},{"internalType":"enum CreatorToken.RewardType","name":"","type":"uint8"}],"name":"hasEngaged","outputs":[{"internalType":"bool","name":"","type":"bool"}],"stateMutability":"view","type":"function"},{"inputs":[{"internalType":"address","name":"user","type":"address"},{"internalType":"bytes32","name":"contentId","type":"bytes32"},{"internalType":"enum CreatorToken.RewardType","name":"rewardType","type":"uint8"}],"name":"hasUserEngaged","outputs":[{"internalType":"bool","name":"","type":"bool"}],"stateMutability":"view","type":"function"},{"inputs":[{"internalType":"address","name":"","type":"address"},{"internalType":"bytes32","name":"","type":"bytes32"}],"name":"lastEngagementTime","outputs":[{"internalType":"uint256","name":"","type":"uint256"}],"stateMutability":"view","type":"function"},{"inputs":[],"name":"owner","outputs":[{"internalType":"address","name":"","type":"address"}],"stateMutability":"view","type":"function"},{"inputs":[],"name":"renounceOwnership","outputs":[],"stateMutability":"nonpayable","type":"function"},{"inputs":[{"internalType":"address","name":"user","type":"address"},{"internalType":"bytes32","name":"contentId","type":"bytes32"},{"internalType":"enum CreatorToken.RewardType","name":"rewardType","type":"uint8"}],"name":"rewardEngagement","outputs":[],"stateMutability":"nonpayable","type":"function"},{"inputs":[{"internalType":"enum CreatorToken.RewardType","name":"","type":"uint8"}],"name":"rewardRates","outputs":[{"internalType":"uint256","name":"","type":"uint256"}],"stateMutability":"view","type":"function"},{"inputs":[{"internalType":"address","name":"from","type":"address"},{"internalType":"address","name":"to","type":"address"},{"internalType":"bytes32","name":"contentId","type":"bytes32"},{"internalType":"uint256","name":"amount","type":"uint256"}],"name":"rewardTip","outputs":[],"stateMutability":"nonpayable","type":"function"},{"inputs":[{"internalType":"address","name":"newOwner","type":"address"}],"name":"transferOwnership","outputs":[],"stateMutability":"nonpayable","type":"function"},{"inputs":[{"internalType":"uint256","name":"newCooldown","type":"uint256"}],"name":"updateEngagementCooldown","outputs":[],"stateMutability":"nonpayable","type":"function"},{"inputs":[{"internalType":"enum CreatorToken.RewardType","name":"rewardType","type":"uint8"},{"internalType":"uint256","name":"newRate","type":"uint256"}],"name":"updateRewardRate","outputs":[],"stateMutability":"nonpayable","type":"function"}],"evm":{"bytecode":{"linkReferences":{},"object":"6080604052610e1060065534801561001657600080fd5b5060405161128838038061128883398101604081905261003591610222565b338061005c57604051631e4fbdf760e01b8152600060048201526024015b60405180910390fd5b610065816101d2565b50600180556001600160a01b0381166100d05760405162461bcd60e51b815260206004820152602760248201527f456e676167656d656e745265776172643a20496e76616c696420746f6b656e206044820152666164647265737360c81b6064820152608401610053565b600280546001600160a01b0319166001600160a01b03929092169190911790556003602052678ac7230489e800007f3617319a054d772f909f7c479a2cebe5066e836a939412e32403c99029b92eff5568015af1d78b58c400007fa15bc60c955c405d20d9149c709e2460f1c2d9a497496a7f46004d1772c3054c556802b5e3af16b18800007fc3a24b0501bd2c13a7e57f2db4369ec4c223447539fc0724a9d55ac4a06ebd4d5568056bc75e2d631000007fcbc4e5fb02c3d1de23a9f1e014b4d2ee5aeaea9505df5e855c9210bf472495af55600460009081527f83ec6a1f0257b830b5e016457c9cf1435391bf56cc98f369a58a54fe9377246555610252565b600080546001600160a01b038381166001600160a01b0319831681178455604051919092169283917f8be0079c531659141344cd1fd0a4f28419497f9722a3daafe3b4186f6b6457e09190a35050565b60006020828403121561023457600080fd5b81516001600160a01b038116811461024b57600080fd5b9392505050565b611027806102616000396000f3fe608060405234801561001057600080fd5b50600436106101215760003560e01c806376e7e0bb116100ad5780638da5cb5b116100715780638da5cb5b146102de578063a404af60146102ef578063bd3e3461146102f7578063e0b1fb061461030a578063f2fde38b1461031d57600080fd5b806376e7e0bb1461023f578063789809661461026a578063883b9b8c1461027d5780638a5af7f4146102905780638c390221146102a357600080fd5b80635312ea8e116100f45780635312ea8e146101a3578063541cb57f146101b8578063677298b3146101d857806367a689d914610203578063715018a61461023757600080fd5b80630af4b05d146101265780631726aab91461014257806324c5a0ff14610155578063483a5f1414610178575b600080fd5b61012f60065481565b6040519081526020015b60405180910390f35b61012f610150366004610d65565b610330565b610168610163366004610da8565b61037d565b6040519015158152602001610139565b60025461018b906001600160a01b031681565b6040516001600160a01b039091168152602001610139565b6101b66101b1366004610de4565b6103e0565b005b61012f6101c6366004610dfd565b60036020526000908152604090205481565b61012f6101e6366004610e1f565b600760209081526000928352604080842090915290825290205481565b610168610211366004610da8565b600560209081526000938452604080852082529284528284209052825290205460ff1681565b6101b6610480565b61012f61024d366004610d65565b600460209081526000928352604080842090915290825290205481565b6101b6610278366004610de4565b610494565b61012f61028b366004610dfd565b610563565b6101b661029e366004610e49565b6105a2565b6102b66102b1366004610de4565b61076b565b604080519586526020860194909452928401919091526060830152608082015260a001610139565b6000546001600160a01b031661018b565b61012f600181565b6101b6610305366004610da8565b6107cf565b6101b6610318366004610e8b565b610bed565b6101b661032b366004610ea7565b610c6c565b60008281526004602081905260408220908290849081111561035457610354610ec2565b600481111561036557610365610ec2565b81526020019081526020016000205490505b92915050565b6001600160a01b03831660009081526005602090815260408083208584529091528120818360048111156103b3576103b3610ec2565b60048111156103c4576103c4610ec2565b815260208101919091526040016000205460ff16949350505050565b6103e8610caa565b6002546001600160a01b031663a9059cbb61040b6000546001600160a01b031690565b6040516001600160e01b031960e084901b1681526001600160a01b039091166004820152602481018490526044016020604051808303816000875af1158015610458573d6000803e3d6000fd5b505050506040513d601f19601f8201168201806040525081019061047c9190610ed8565b5050565b610488610caa565b6104926000610cd7565b565b61049c610caa565b61012c8110156104ff5760405162461bcd60e51b8152602060048201526024808201527f456e676167656d656e745265776172643a20436f6f6c646f776e20746f6f20736044820152631a1bdc9d60e21b60648201526084015b60405180910390fd5b6201518081111561055e5760405162461bcd60e51b815260206004820152602360248201527f456e676167656d656e745265776172643a20436f6f6c646f776e20746f6f206c6044820152626f6e6760e81b60648201526084016104f6565b600655565b60006003600083600481111561057b5761057b610ec2565b600481111561058c5761058c610ec2565b8152602001908152602001600020549050919050565b6105aa610caa565b6105b2610d27565b6001600160a01b038416158015906105d257506001600160a01b03831615155b61062a5760405162461bcd60e51b815260206004820152602360248201527f456e676167656d656e745265776172643a20496e76616c69642061646472657360448201526273657360e81b60648201526084016104f6565b816106475760405162461bcd60e51b81526004016104f690610efa565b600081116106975760405162461bcd60e51b815260206004820181905260248201527f456e676167656d656e745265776172643a20496e76616c696420616d6f756e7460448201526064016104f6565b6002546040516323b872dd60e01b81526001600160a01b038681166004830152858116602483015260448201849052909116906323b872dd906064016020604051808303816000875af11580156106f2573d6000803e3d6000fd5b505050506040513d601f19601f820116820180604052508101906107169190610ed8565b5081836001600160a01b03167f26f2ae740c362eeafe9ead81ef47557289a24bb312a4acf7df6782482ae6502c600484604051610754929190610f60565b60405180910390a361076560018055565b50505050565b60008181526004602090815260408083208380529091528082205460018352818320546002845282842054600385529284205491939092919081836107b08688610f91565b6107ba9190610f91565b6107c49190610f91565b905091939590929450565b6107d7610caa565b6107df610d27565b6001600160a01b0383166108445760405162461bcd60e51b815260206004820152602660248201527f456e676167656d656e745265776172643a20496e76616c69642075736572206160448201526564647265737360d01b60648201526084016104f6565b816108615760405162461bcd60e51b81526004016104f690610efa565b6006546001600160a01b03841660009081526007602090815260408083208684529091529020546108929190610f91565b4210156108f65760405162461bcd60e51b815260206004820152602c60248201527f456e676167656d656e745265776172643a20436f6f6c646f776e20706572696f60448201526b19081b9bdd081c185cdcd95960a21b60648201526084016104f6565b6001600160a01b038316600090815260056020908152604080832085845290915281209082600481111561092c5761092c610ec2565b600481111561093d5761093d610ec2565b815260208101919091526040016000205460ff16156109ad5760405162461bcd60e51b815260206004820152602660248201527f456e676167656d656e745265776172643a205573657220616c726561647920656044820152651b99d859d95960d21b60648201526084016104f6565b6000600360008360048111156109c5576109c5610ec2565b60048111156109d6576109d6610ec2565b815260200190815260200160002054905060008111610a495760405162461bcd60e51b815260206004820152602960248201527f456e676167656d656e745265776172643a204e6f2072657761726420666f722060448201526874686973207479706560b81b60648201526084016104f6565b60025460405163126b5bc960e01b81526001600160a01b039091169063126b5bc990610a7f908790859088908890600401610fa4565b600060405180830381600087803b158015610a9957600080fd5b505af1158015610aad573d6000803e3d6000fd5b505050506001600160a01b03841660009081526005602090815260408083208684529091528120600191846004811115610ae957610ae9610ec2565b6004811115610afa57610afa610ec2565b815260200190815260200160002060006101000a81548160ff021916908315150217905550600460008481526020019081526020016000206000836004811115610b4657610b46610ec2565b6004811115610b5757610b57610ec2565b81526020019081526020016000206000815480929190610b7690610fd8565b90915550506001600160a01b038416600081815260076020908152604080832087845290915290819020429055518491907f26f2ae740c362eeafe9ead81ef47557289a24bb312a4acf7df6782482ae6502c90610bd69086908690610f60565b60405180910390a350610be860018055565b505050565b610bf5610caa565b8060036000846004811115610c0c57610c0c610ec2565b6004811115610c1d57610c1d610ec2565b8152602001908152602001600020819055507fe3f408bbee4c8943793f63832208ab606680bfd72bfc8c49af7151dd656ff4ca8282604051610c60929190610f60565b60405180910390a15050565b610c74610caa565b6001600160a01b038116610c9e57604051631e4fbdf760e01b8152600060048201526024016104f6565b610ca781610cd7565b50565b6000546001600160a01b031633146104925760405163118cdaa760e01b81523360048201526024016104f6565b600080546001600160a01b038381166001600160a01b0319831681178455604051919092169283917f8be0079c531659141344cd1fd0a4f28419497f9722a3daafe3b4186f6b6457e09190a35050565b600260015403610d4a57604051633ee5aeb560e01b815260040160405180910390fd5b6002600155565b803560058110610d6057600080fd5b919050565b60008060408385031215610d7857600080fd5b82359150610d8860208401610d51565b90509250929050565b80356001600160a01b0381168114610d6057600080fd5b600080600060608486031215610dbd57600080fd5b610dc684610d91565b925060208401359150610ddb60408501610d51565b90509250925092565b600060208284031215610df657600080fd5b5035919050565b600060208284031215610e0f57600080fd5b610e1882610d51565b9392505050565b60008060408385031215610e3257600080fd5b610e3b83610d91565b946020939093013593505050565b60008060008060808587031215610e5f57600080fd5b610e6885610d91565b9350610e7660208601610d91565b93969395505050506040820135916060013590565b60008060408385031215610e9e57600080fd5b610e3b83610d51565b600060208284031215610eb957600080fd5b610e1882610d91565b634e487b7160e01b600052602160045260246000fd5b600060208284031215610eea57600080fd5b81518015158114610e1857600080fd5b60208082526024908201527f456e676167656d656e745265776172643a20496e76616c696420636f6e74656e6040820152631d08125160e21b606082015260800190565b60058110610f5c57634e487b7160e01b600052602160045260246000fd5b9052565b60408101610f6e8285610f3e565b8260208301529392505050565b634e487b7160e01b600052601160045260246000fd5b8082018082111561037757610377610f7b565b6001600160a01b0385168152602081018490526040810183905260808101610fcf6060830184610f3e565b95945050505050565b600060018201610fea57610fea610f7b565b506001019056fea26469706673582212204c8acd09f334eb2b83ad643b18c7f249410b7b2aa70cf8dcf778645b1b733f1f64736f6c63430008180033","opcodes":"PUSH1 0x80 PUSH1 0x40 MSTORE PUSH2 0xE10 PUSH1 0x6 SSTORE CALLVALUE DUP1 ISZERO PUSH2 0x16 JUMPI PUSH1 0x0 DUP1 REVERT JUMPDEST POP PUSH1 0x40 MLOAD PUSH2 0x1288 CODESIZE SUB DUP1 PUSH2 0x1288 DUP4 CODECOPY DUP2 ADD PUSH1 0x40 DUP2 SWAP1 MSTORE PUSH2 0x35 SWAP2 PUSH2 0x222 JUMP JUMPDEST CALLER DUP1 PUSH2 0x5C JUMPI PUSH1 0x40 MLOAD PUSH4 0x1E4FBDF7 PUSH1 0xE0 SHL DUP2 MSTORE PUSH1 0x0 PUSH1 0x4 DUP3 ADD MSTORE PUSH1 0x24 ADD JUMPDEST PUSH1 0x40 MLOAD DUP1 SWAP2 SUB SWAP1 REVERT JUMPDEST PUSH2 0x65 DUP2 PUSH2 0x1D2 JUMP JUMPDEST POP PUSH1 0x1 DUP1 SSTORE PUSH1 0x1 PUSH1 0x1 PUSH1 0xA0 SHL SUB DUP2 AND PUSH2 0xD0 JUMPI PUSH1 0x40 MLOAD PUSH3 0x461BCD PUSH1 0xE5 SHL DUP2 MSTORE PUSH1 0x20 PUSH1 0x4 DUP3 ADD MSTORE PUSH1 0x27 PUSH1 0x24 DUP3 ADD MSTORE PUSH32 0x456E676167656D656E745265776172643A20496E76616C696420746F6B656E20 PUSH1 0x44 DUP3 ADD MSTORE PUSH7 0x61646472657373 PUSH1 0xC8 SHL PUSH1 0x64 DUP3 ADD MSTORE PUSH1 0x84 ADD PUSH2 0x53 JUMP JUMPDEST PUSH1 0x2 DUP1 SLOAD PUSH1 0x1 PUSH1 0x1 PUSH1 0xA0 SHL SUB NOT AND PUSH1 0x1 PUSH1 0x1 PUSH1 0xA0 SHL SUB SWAP3 SWAP1 SWAP3 AND SWAP2 SWAP1 SWAP2 OR SWAP1 SSTORE PUSH1 0x3 PUSH1 0x20 MSTORE PUSH8 0x8AC7230489E80000 PUSH32 0x3617319A054D772F909F7C479A2CEBE5066E836A939412E32403C99029B92EFF SSTORE PUSH9 0x15AF1D78B58C40000 PUSH32 0xA15BC60C955C405D20D9149C709E2460F1C2D9A497496A7F46004D1772C3054C SSTORE PUSH9 0x2B5E3AF16B1880000 PUSH32 0xC3A24B0501BD2C13A7E57F2DB4369EC4C223447539FC0724A9D55AC4A06EBD4D SSTORE PUSH9 0x56BC75E2D63100000 PUSH32 0xCBC4E5FB02C3D1DE23A9F1E014B4D2EE5AEAEA9505DF5E855C9210BF472495AF SSTORE PUSH1 0x4 PUSH1 0x0 SWAP1 DUP2 MSTORE PUSH32 0x83EC6A1F0257B830B5E016457C9CF1435391BF56CC98F369A58A54FE93772465 SSTORE PUSH2 0x252 JUMP JUMPDEST PUSH1 0x0 DUP1 SLOAD PUSH1 0x1 PUSH1 0x1 PUSH1 0xA0 SHL SUB DUP4 DUP2 AND PUSH1 0x1 PUSH1 0x1 PUSH1 0xA0 SHL SUB NOT DUP4 AND DUP2 OR DUP5 SSTORE PUSH1 0x40 MLOAD SWAP2 SWAP1 SWAP3 AND SWAP3 DUP4 SWAP2 PUSH32 0x8BE0079C531659141344CD1FD0A4F28419497F9722A3DAAFE3B4186F6B6457E0 SWAP2 SWAP1 LOG3 POP POP JUMP JUMPDEST PUSH1 0x0 PUSH1 0x20 DUP3 DUP5 SUB SLT ISZERO PUSH2 0x234 JUMPI PUSH1 0x0 DUP1 REVERT JUMPDEST DUP2 MLOAD PUSH1 0x1 PUSH1 0x1 PUSH1 0xA0 SHL SUB DUP2 AND DUP2 EQ PUSH2 0x24B JUMPI PUSH1 0x0 DUP1 REVERT JUMPDEST SWAP4 SWAP3 POP POP POP JUMP JUMPDEST PUSH2 0x1027 DUP1 PUSH2 0x261 PUSH1 0x0 CODECOPY PUSH1 0x0 RETURN INVALID PUSH1 0x80 PUSH1 0x40 MSTORE CALLVALUE DUP1 ISZERO PUSH2 0x10 JUMPI PUSH1 0x0 DUP1 REVERT JUMPDEST POP PUSH1 0x4 CALLDATASIZE LT PUSH2 0x121 JUMPI PUSH1 0x0 CALLDATALOAD PUSH1 0xE0 SHR DUP1 PUSH4 0x76E7E0BB GT PUSH2 0xAD JUMPI DUP1 PUSH4 0x8DA5CB5B GT PUSH2 0x71 JUMPI DUP1 PUSH4 0x8DA5CB5B EQ PUSH2 0x2DE JUMPI DUP1 PUSH4 0xA404AF60 EQ PUSH2 0x2EF JUMPI DUP1 PUSH4 0xBD3E3461 EQ PUSH2 0x2F7 JUMPI DUP1 PUSH4 0xE0B1FB06 EQ PUSH2 0x30A JUMPI DUP1 PUSH4 0xF2FDE38B EQ PUSH2 0x31D JUMPI PUSH1 0x0 DUP1 REVERT JUMPDEST DUP1 PUSH4 0x76E7E0BB EQ PUSH2 0x23F JUMPI DUP1 PUSH4 0x78980966 EQ PUSH2 0x26A JUMPI DUP1 PUSH4 0x883B9B8C EQ PUSH2 0x27D JUMPI DUP1 PUSH4 0x8A5AF7F4 EQ PUSH2 0x290 JUMPI DUP1 PUSH4 0x8C390221 EQ PUSH2 0x2A3 JUMPI PUSH1 0x0 DUP1 REVERT JUMPDEST DUP1 PUSH4 0x5312EA8E GT PUSH2 0xF4 JUMPI DUP1 PUSH4 0x5312EA8E EQ PUSH2 0x1A3 JUMPI DUP1 PUSH4 0x541CB57F EQ PUSH2 0x1B8 JUMPI DUP1 PUSH4 0x677298B3 EQ PUSH2 0x1D8 JUMPI DUP1 PUSH4 0x67A689D9 EQ PUSH2 0x203 JUMPI DUP1 PUSH4 0x715018A6 EQ PUSH2 0x237 JUMPI PUSH1 0x0 DUP1 REVERT JUMPDEST DUP1 PUSH4 0xAF4B05D EQ PUSH2 0x126 JUMPI DUP1 PUSH4 0x1726AAB9 EQ PUSH2 0x142 JUMPI DUP1 PUSH4 0x24C5A0FF EQ PUSH2 0x155 JUMPI DUP1 PUSH4 0x483A5F14 EQ PUSH2 0x178 JUMPI JUMPDEST PUSH1 0x0 DUP1 REVERT JUMPDEST PUSH2 0x12F PUSH1 0x6 SLOAD DUP2 JUMP JUMPDEST PUSH1 0x40 MLOAD SWAP1 DUP2 MSTORE PUSH1 0x20 ADD JUMPDEST PUSH1 0x40 MLOAD DUP1 SWAP2 SUB SWAP1 RETURN JUMPDEST PUSH2 0x12F PUSH2 0x150 CALLDATASIZE PUSH1 0x4 PUSH2 0xD65 JUMP JUMPDEST PUSH2 0x330 JUMP JUMPDEST PUSH2 0x168 PUSH2 0x163 CALLDATASIZE PUSH1 0x4 PUSH2 0xDA8 JUMP JUMPDEST PUSH2 0x37D JUMP JUMPDEST PUSH1 0x40 MLOAD SWAP1 ISZERO ISZERO DUP2 MSTORE PUSH1 0x20 ADD PUSH2 0x139 JUMP JUMPDEST PUSH1 0x2 SLOAD PUSH2 0x18B SWAP1 PUSH1 0x1 PUSH1 0x1 PUSH1 0xA0 SHL SUB AND DUP2 JUMP JUMPDEST PUSH1 0x40 MLOAD PUSH1 0x1 PUSH1 0x1 PUSH1 0xA0 SHL SUB SWAP1 SWAP2 AND DUP2 MSTORE PUSH1 0x20 ADD PUSH2 0x139 JUMP JUMPDEST PUSH2 0x1B6 PUSH2 0x1B1 CALLDATASIZE PUSH1 0x4 PUSH2 0xDE4 JUMP JUMPDEST PUSH2 0x3E0 JUMP JUMPDEST STOP JUMPDEST PUSH2 0x12F PUSH2 0x1C6 CALLDATASIZE PUSH1 0x4 PUSH2 0xDFD JUMP JUMPDEST PUSH1 0x3 PUSH1 0x20 MSTORE PUSH1 0x0 SWAP1 DUP2 MSTORE PUSH1 0x40 SWAP1 KECCAK256 SLOAD DUP2 JUMP JUMPDEST PUSH2 0x12F PUSH2 0x1E6 CALLDATASIZE PUSH1 0x4 PUSH2 0xE1F JUMP JUMPDEST PUSH1 0x7 PUSH1 0x20 SWAP1 DUP2 MSTORE PUSH1 0x0 SWAP3 DUP4 MSTORE PUSH1 0x40 DUP1 DUP5 KECCAK256 SWAP1 SWAP2 MSTORE SWAP1 DUP3 MSTORE SWAP1 KECCAK256 SLOAD DUP2 JUMP JUMPDEST PUSH2 0x168 PUSH2 0x211 CALLDATASIZE PUSH1 0x4 PUSH2 0xDA8 JUMP JUMPDEST PUSH1 0x5 PUSH1 0x20 SWAP1 DUP2 MSTORE PUSH1 0x0 SWAP4 DUP5 MSTORE PUSH1 0x40 DUP1 DUP6 KECCAK256 DUP3 MSTORE SWAP3 DUP5 MSTORE DUP3 DUP5 KECCAK256 SWAP1 MSTORE DUP3 MSTORE SWAP1 KECCAK256 SLOAD PUSH1 0xFF AND DUP2 JUMP JUMPDEST PUSH2 0x1B6 PUSH2 0x480 JUMP JUMPDEST PUSH2 0x12F PUSH2 0x24D CALLDATASIZE PUSH1 0x4 PUSH2 0xD65 JUMP JUMPDEST PUSH1 0x4 PUSH1 0x20 SWAP1 DUP2 MSTORE PUSH1 0x0 SWAP3 DUP4 MSTORE PUSH1 0x40 DUP1 DUP5 KECCAK256 SWAP1 SWAP2 MSTORE SWAP1 DUP3 MSTORE SWAP1 KECCAK256 SLOAD DUP2 JUMP JUMPDEST PUSH2 0x1B6 PUSH2 0x278 CALLDATASIZE PUSH1 0x4 PUSH2 0xDE4 JUMP JUMPDEST PUSH2 0x494 JUMP JUMPDEST PUSH2 0x12F PUSH2 0x28B CALLDATASIZE PUSH1 0x4 PUSH2 0xDFD JUMP JUMPDEST PUSH2 0x563 JUMP JUMPDEST PUSH2 0x1B6 PUSH2 0x29E CALLDATASIZE PUSH1 0x4 PUSH2 0xE49 JUMP JUMPDEST PUSH2 0x5A2 JUMP JUMPDEST PUSH2 0x2B6 PUSH2 0x2B1 CALLDATASIZE PUSH1 0x4 PUSH2 0xDE4 JUMP JUMPDEST PUSH2 0x76B JUMP JUMPDEST PUSH1 0x40 DUP1 MLOAD SWAP6 DUP7 MSTORE PUSH1 0x20 DUP7 ADD SWAP5 SWAP1 SWAP5 MSTORE SWAP3 DUP5 ADD SWAP2 SWAP1 SWAP2 MSTORE PUSH1 0x60 DUP4 ADD MSTORE PUSH1 0x80 DUP3 ADD MSTORE PUSH1 0xA0 ADD PUSH2 0x139 JUMP JUMPDEST PUSH1 0x0 SLOAD PUSH1 0x1 PUSH1 0x1 PUSH1 0xA0 SHL SUB AND PUSH2 0x18B JUMP JUMPDEST PUSH2 0x12F PUSH1 0x1 DUP2 JUMP JUMPDEST PUSH2 0x1B6 PUSH2 0x305 CALLDATASIZE PUSH1 0x4 PUSH2 0xDA8 JUMP JUMPDEST PUSH2 0x7CF JUMP JUMPDEST PUSH2 0x1B6 PUSH2 0x318 CALLDATASIZE PUSH1 0x4 PUSH2 0xE8B JUMP JUMPDEST PUSH2 0xBED JUMP JUMPDEST PUSH2 0x1B6 PUSH2 0x32B CALLDATASIZE PUSH1 0x4 PUSH2 0xEA7 JUMP JUMPDEST PUSH2 0xC6C JUMP JUMPDEST PUSH1 0x0 DUP3 DUP2 MSTORE PUSH1 0x4 PUSH1 0x20 DUP2 SWAP1 MSTORE PUSH1 0x40 DUP3 KECCAK256 SWAP1 DUP3 SWAP1 DUP5 SWAP1 DUP2 GT ISZERO PUSH2 0x354 JUMPI PUSH2 0x354 PUSH2 0xEC2 JUMP JUMPDEST PUSH1 0x4 DUP2 GT ISZERO PUSH2 0x365 JUMPI PUSH2 0x365 PUSH2 0xEC2 JUMP JUMPDEST DUP2 MSTORE PUSH1 0x20 ADD SWAP1 DUP2 MSTORE PUSH1 0x20 ADD PUSH1 0x0 KECCAK256 SLOAD SWAP1 POP JUMPDEST SWAP3 SWAP2 POP POP JUMP JUMPDEST PUSH1 0x1 PUSH1 0x1 PUSH1 0xA0 SHL SUB DUP4 AND PUSH1 0x0 SWAP1 DUP2 MSTORE PUSH1 0x5 PUSH1 0x20 SWAP1 DUP2 MSTORE PUSH1 0x40 DUP1 DUP4 KECCAK256 DUP6 DUP5 MSTORE SWAP1 SWAP2 MSTORE DUP2 KECCAK256 DUP2 DUP4 PUSH1 0x4 DUP2 GT ISZERO PUSH2 0x3B3 JUMPI PUSH2 0x3B3 PUSH2 0xEC2 JUMP JUMPDEST PUSH1 0x4 DUP2 GT ISZERO PUSH2 0x3C4 JUMPI PUSH2 0x3C4 PUSH2 0xEC2 JUMP JUMPDEST DUP2 MSTORE PUSH1 0x20 DUP2 ADD SWAP2 SWAP1 SWAP2 MSTORE PUSH1 0x40 ADD PUSH1 0x0 KECCAK256 SLOAD PUSH1 0xFF AND SWAP5 SWAP4 POP POP POP POP JUMP JUMPDEST PUSH2 0x3E8 PUSH2 0xCAA JUMP JUMPDEST PUSH1 0x2 SLOAD PUSH1 0x1 PUSH1 0x1 PUSH1 0xA0 SHL SUB AND PUSH4 0xA9059CBB PUSH2 0x40B PUSH1 0x0 SLOAD PUSH1 0x1 PUSH1 0x1 PUSH1 0xA0 SHL SUB AND SWAP1 JUMP JUMPDEST PUSH1 0x40 MLOAD PUSH1 0x1 PUSH1 0x1 PUSH1 0xE0 SHL SUB NOT PUSH1 0xE0 DUP5 SWAP1 SHL AND DUP2 MSTORE PUSH1 0x1 PUSH1 0x1 PUSH1 0xA0 SHL SUB SWAP1 SWAP2 AND PUSH1 0x4 DUP3 ADD MSTORE PUSH1 0x24 DUP2 ADD DUP5 SWAP1 MSTORE PUSH1 0x44 ADD PUSH1 0x20 PUSH1 0x40 MLOAD DUP1 DUP4 SUB DUP2 PUSH1 0x0 DUP8 GAS CALL ISZERO DUP1 ISZERO PUSH2 0x458 JUMPI RETURNDATASIZE PUSH1 0x0 DUP1 RETURNDATACOPY RETURNDATASIZE PUSH1 0x0 REVERT JUMPDEST POP POP POP POP PUSH1 0x40 MLOAD RETURNDATASIZE PUSH1 0x1F NOT PUSH1 0x1F DUP3 ADD AND DUP3 ADD DUP1 PUSH1 0x40 MSTORE POP DUP2 ADD SWAP1 PUSH2 0x47C SWAP2 SWAP1 PUSH2 0xED8 JUMP JUMPDEST POP POP JUMP JUMPDEST PUSH2 0x488 PUSH2 0xCAA JUMP JUMPDEST PUSH2 0x492 PUSH1 0x0 PUSH2 0xCD7 JUMP JUMPDEST JUMP JUMPDEST PUSH2 0x49C PUSH2 0xCAA JUMP JUMPDEST PUSH2 0x12C DUP2 LT ISZERO PUSH2 0x4FF JUMPI PUSH1 0x40 MLOAD PUSH3 0x461BCD PUSH1 0xE5 SHL DUP2 MSTORE PUSH1 0x20 PUSH1 0x4 DUP3 ADD MSTORE PUSH1 0x24 DUP1 DUP3 ADD MSTORE PUSH32 0x456E676167656D656E745265776172643A20436F6F6C646F776E20746F6F2073 PUSH1 0x44 DUP3 ADD MSTORE PUSH4 0x1A1BDC9D PUSH1 0xE2 SHL PUSH1 0x64 DUP3 ADD MSTORE PUSH1 0x84 ADD JUMPDEST PUSH1 0x40 MLOAD DUP1 SWAP2 SUB SWAP1 REVERT JUMPDEST PUSH3 0x15180 DUP2 GT ISZERO PUSH2 0x55E JUMPI PUSH1 0x40 MLOAD PUSH3 0x461BCD PUSH1 0xE5 SHL DUP2 MSTORE PUSH1 0x20 PUSH1 0x4 DUP3 ADD MSTORE PUSH1 0x23 PUSH1 0x24 DUP3 ADD MSTORE PUSH32 0x456E676167656D656E745265776172643A20436F6F6C646F776E20746F6F206C PUSH1 0x44 DUP3 ADD MSTORE PUSH3 0x6F6E67 PUSH1 0xE8 SHL PUSH1 0x64 DUP3 ADD MSTORE PUSH1 0x84 ADD PUSH2 0x4F6 JUMP JUMPDEST PUSH1 0x6 SSTORE JUMP JUMPDEST PUSH1 0x0 PUSH1 0x3 PUSH1 0x0 DUP4 PUSH1 0x4 DUP2 GT ISZERO PUSH2 0x57B JUMPI PUSH2 0x57B PUSH2 0xEC2 JUMP JUMPDEST PUSH1 0x4 DUP2 GT ISZERO PUSH2 0x58C JUMPI PUSH2 0x58C PUSH2 0xEC2 JUMP JUMPDEST DUP2 MSTORE PUSH1 0x20 ADD SWAP1 DUP2 MSTORE PUSH1 0x20 ADD PUSH1 0x0 KECCAK256 SLOAD SWAP1 POP SWAP2 SWAP1 POP JUMP JUMPDEST PUSH2 0x5AA PUSH2 0xCAA JUMP JUMPDEST PUSH2 0x5B2 PUSH2 0xD27 JUMP JUMPDEST PUSH1 0x1 PUSH1 0x1 PUSH1 0xA0 SHL SUB DUP5 AND ISZERO DUP1 ISZERO SWAP1 PUSH2 0x5D2 JUMPI POP PUSH1 0x1 PUSH1 0x1 PUSH1 0xA0 SHL SUB DUP4 AND ISZERO ISZERO JUMPDEST PUSH2 0x62A JUMPI PUSH1 0x40 MLOAD PUSH3 0x461BCD PUSH1 0xE5 SHL DUP2 MSTORE PUSH1 0x20 PUSH1 0x4 DUP3 ADD MSTORE PUSH1 0x23 PUSH1 0x24 DUP3 ADD MSTORE PUSH32 0x456E676167656D656E745265776172643A20496E76616C696420616464726573 PUSH1 0x44 DUP3 ADD MSTORE PUSH3 0x736573 PUSH1 0xE8 SHL PUSH1 0x64 DUP3 ADD MSTORE PUSH1 0x84 ADD PUSH2 0x4F6 JUMP JUMPDEST DUP2 PUSH2 0x647 JUMPI PUSH1 0x40 MLOAD PUSH3 0x461BCD PUSH1 0xE5 SHL DUP2 MSTORE PUSH1 0x4 ADD PUSH2 0x4F6 SWAP1 PUSH2 0xEFA JUMP JUMPDEST PUSH1 0x0 DUP2 GT PUSH2 0x697 JUMPI PUSH1 0x40 MLOAD PUSH3 0x461BCD PUSH1 0xE5 SHL DUP2 MSTORE PUSH1 0x20 PUSH1 0x4 DUP3 ADD DUP2 SWAP1 MSTORE PUSH1 0x24 DUP3 ADD MSTORE PUSH32 0x456E676167656D656E745265776172643A20496E76616C696420616D6F756E74 PUSH1 0x44 DUP3 ADD MSTORE PUSH1 0x64 ADD PUSH2 0x4F6 JUMP JUMPDEST PUSH1 0x2 SLOAD PUSH1 0x40 MLOAD PUSH4 0x23B872DD PUSH1 0xE0 SHL DUP2 MSTORE PUSH1 0x1 PUSH1 0x1 PUSH1 0xA0 SHL SUB DUP7 DUP2 AND PUSH1 0x4 DUP4 ADD MSTORE DUP6 DUP2 AND PUSH1 0x24 DUP4 ADD MSTORE PUSH1 0x44 DUP3 ADD DUP5 SWAP1 MSTORE SWAP1 SWAP2 AND SWAP1 PUSH4 0x23B872DD SWAP1 PUSH1 0x64 ADD PUSH1 0x20 PUSH1 0x40 MLOAD DUP1 DUP4 SUB DUP2 PUSH1 0x0 DUP8 GAS CALL ISZERO DUP1 ISZERO PUSH2 0x6F2 JUMPI RETURNDATASIZE PUSH1 0x0 DUP1 RETURNDATACOPY RETURNDATASIZE PUSH1 0x0 REVERT JUMPDEST POP POP POP POP PUSH1 0x40 MLOAD RETURNDATASIZE PUSH1 0x1F NOT PUSH1 0x1F DUP3 ADD AND DUP3 ADD DUP1 PUSH1 0x40 MSTORE POP DUP2 ADD SWAP1 PUSH2 0x716 SWAP2 SWAP1 PUSH2 0xED8 JUMP JUMPDEST POP DUP2 DUP4 PUSH1 0x1 PUSH1 0x1 PUSH1 0xA0 SHL SUB AND PUSH32 0x26F2AE740C362EEAFE9EAD81EF47557289A24BB312A4ACF7DF6782482AE6502C PUSH1 0x4 DUP5 PUSH1 0x40 MLOAD PUSH2 0x754 SWAP3 SWAP2 SWAP1 PUSH2 0xF60 JUMP JUMPDEST PUSH1 0x40 MLOAD DUP1 SWAP2 SUB SWAP1 LOG3 PUSH2 0x765 PUSH1 0x1 DUP1 SSTORE JUMP JUMPDEST POP POP POP POP JUMP JUMPDEST PUSH1 0x0 DUP2 DUP2 MSTORE PUSH1 0x4 PUSH1 0x20 SWAP1 DUP2 MSTORE PUSH1 0x40 DUP1 DUP4 KECCAK256 DUP4 DUP1 MSTORE SWAP1 SWAP2 MSTORE DUP1 DUP3 KECCAK256 SLOAD PUSH1 0x1 DUP4 MSTORE DUP2 DUP4 KECCAK256 SLOAD PUSH1 0x2 DUP5 MSTORE DUP3 DUP5 KECCAK256 SLOAD PUSH1 0x3 DUP6 MSTORE SWAP3 DUP5 KECCAK256 SLOAD SWAP2 SWAP4 SWAP1 SWAP3 SWAP2 SWAP1 DUP2 DUP4 PUSH2 0x7B0 DUP7 DUP9 PUSH2 0xF91 JUMP JUMPDEST PUSH2 0x7BA SWAP2 SWAP1 PUSH2 0xF91 JUMP JUMPDEST PUSH2 0x7C4 SWAP2 SWAP1 PUSH2 0xF91 JUMP JUMPDEST SWAP1 POP SWAP2 SWAP4 SWAP6 SWAP1 SWAP3 SWAP5 POP JUMP JUMPDEST PUSH2 0x7D7 PUSH2 0xCAA JUMP JUMPDEST PUSH2 0x7DF PUSH2 0xD27 JUMP JUMPDEST PUSH1 0x1 PUSH1 0x1 PUSH1 0xA0 SHL SUB DUP4 AND PUSH2 0x844 JUMPI PUSH1 0x40 MLOAD PUSH3 0x461BCD PUSH1 0xE5 SHL DUP2 MSTORE PUSH1 0x20 PUSH1 0x4 DUP3 ADD MSTORE PUSH1 0x26 PUSH1 0x24 DUP3 ADD MSTORE PUSH32 0x456E676167656D656E745265776172643A20496E76616C696420757365722061 PUSH1 0x44 DUP3 ADD MSTORE PUSH6 0x646472657373 PUSH1 0xD0 SHL PUSH1 0x64 DUP3 ADD MSTORE PUSH1 0x84 ADD PUSH2 0x4F6 JUMP JUMPDEST DUP2 PUSH2 0x861 JUMPI PUSH1 0x40 MLOAD PUSH3 0x461BCD PUSH1 0xE5 SHL DUP2 MSTORE PUSH1 0x4 ADD PUSH2 0x4F6 SWAP1 PUSH2 0xEFA JUMP JUMPDEST PUSH1 0x6 SLOAD PUSH1 0x1 PUSH1 0x1 PUSH1 0xA0 SHL SUB DUP5 AND PUSH1 0x0 SWAP1 DUP2 MSTORE PUSH1 0x7 PUSH1 0x20 SWAP1 DUP2 MSTORE PUSH1 0x40 DUP1 DUP4 KECCAK256 DUP7 DUP5 MSTORE SWAP1 SWAP2 MSTORE SWAP1 KECCAK256 SLOAD PUSH2 0x892 SWAP2 SWAP1 PUSH2 0xF91 JUMP JUMPDEST TIMESTAMP LT ISZERO PUSH2 0x8F6 JUMPI PUSH1 0x40 MLOAD PUSH3 0x461BCD PUSH1 0xE5 SHL DUP2 MSTORE PUSH1 0x20 PUSH1 0x4 DUP3 ADD MSTORE PUSH1 0x2C PUSH1 0x24 DUP3 ADD MSTORE PUSH32 0x456E676167656D656E745265776172643A20436F6F6C646F776E20706572696F PUSH1 0x44 DUP3 ADD MSTORE PUSH12 0x19081B9BDD081C185CDCD959 PUSH1 0xA2 SHL PUSH1 0x64 DUP3 ADD MSTORE PUSH1 0x84 ADD PUSH2 0x4F6 JUMP JUMPDEST PUSH1 0x1 PUSH1 0x1 PUSH1 0xA0 SHL SUB DUP4 AND PUSH1 0x0 SWAP1 DUP2 MSTORE PUSH1 0x5 PUSH1 0x20 SWAP1 DUP2 MSTORE PUSH1 0x40 DUP1 DUP4 KECCAK256 DUP6 DUP5 MSTORE SWAP1 SWAP2 MSTORE DUP2 KECCAK256 SWAP1 DUP3 PUSH1 0x4 DUP2 GT ISZERO PUSH2 0x92C JUMPI PUSH2 0x92C PUSH2 0xEC2 JUMP JUMPDEST PUSH1 0x4 DUP2 GT ISZERO PUSH2 0x93D JUMPI PUSH2 0x93D PUSH2 0xEC2 JUMP JUMPDEST DUP2 MSTORE PUSH1 0x20 DUP2 ADD SWAP2 SWAP1 SWAP2 MSTORE PUSH1 0x40 ADD PUSH1 0x0 KECCAK256 SLOAD PUSH1 0xFF AND ISZERO PUSH2 0x9AD JUMPI PUSH1 0x40 MLOAD PUSH3 0x461BCD PUSH1 0xE5 SHL DUP2 MSTORE PUSH1 0x20 PUSH1 0x4 DUP3 ADD MSTORE PUSH1 0x26 PUSH1 0x24 DUP3 ADD MSTORE PUSH32 0x456E676167656D656E745265776172643A205573657220616C72656164792065 PUSH1 0x44 DUP3 ADD MSTORE PUSH6 0x1B99D859D959 PUSH1 0xD2 SHL PUSH1 0x64 DUP3 ADD MSTORE PUSH1 0x84 ADD PUSH2 0x4F6 JUMP JUMPDEST PUSH1 0x0 PUSH1 0x3 PUSH1 0x0 DUP4 PUSH1 0x4 DUP2 GT ISZERO PUSH2 0x9C5 JUMPI PUSH2 0x9C5 PUSH2 0xEC2 JUMP JUMPDEST PUSH1 0x4 DUP2 GT ISZERO PUSH2 0x9D6 JUMPI PUSH2 0x9D6 PUSH2 0xEC2 JUMP JUMPDEST DUP2 MSTORE PUSH1 0x20 ADD SWAP1 DUP2 MSTORE PUSH1 0x20 ADD PUSH1 0x0 KECCAK256 SLOAD SWAP1 POP PUSH1 0x0 DUP2 GT PUSH2 0xA49 JUMPI PUSH1 0x40 MLOAD PUSH3 0x461BCD PUSH1 0xE5 SHL DUP2 MSTORE PUSH1 0x20 PUSH1 0x4 DUP3 ADD MSTORE PUSH1 0x29 PUSH1 0x24 DUP3 ADD MSTORE PUSH32 0x456E676167656D656E745265776172643A204E6F2072657761726420666F7220 PUSH1 0x44 DUP3 ADD MSTORE PUSH9 0x746869732074797065 PUSH1 0xB8 SHL PUSH1 0x64 DUP3 ADD MSTORE PUSH1 0x84 ADD PUSH2 0x4F6 JUMP JUMPDEST PUSH1 0x2 SLOAD PUSH1 0x40 MLOAD PUSH4 0x126B5BC9 PUSH1 0xE0 SHL DUP2 MSTORE PUSH1 0x1 PUSH1 0x1 PUSH1 0xA0 SHL SUB SWAP1 SWAP2 AND SWAP1 PUSH4 0x126B5BC9 SWAP1 PUSH2 0xA7F SWAP1 DUP8 SWAP1 DUP6 SWAP1 DUP9 SWAP1 DUP9 SWAP1 PUSH1 0x4 ADD PUSH2 0xFA4 JUMP JUMPDEST PUSH1 0x0 PUSH1 0x40 MLOAD DUP1 DUP4 SUB DUP2 PUSH1 0x0 DUP8 DUP1 EXTCODESIZE ISZERO DUP1 ISZERO PUSH2 0xA99 JUMPI PUSH1 0x0 DUP1 REVERT JUMPDEST POP GAS CALL ISZERO DUP1 ISZERO PUSH2 0xAAD JUMPI RETURNDATASIZE PUSH1 0x0 DUP1 RETURNDATACOPY RETURNDATASIZE PUSH1 0x0 REVERT JUMPDEST POP POP POP POP PUSH1 0x1 PUSH1 0x1 PUSH1 0xA0 SHL SUB DUP5 AND PUSH1 0x0 SWAP1 DUP2 MSTORE PUSH1 0x5 PUSH1 0x20 SWAP1 DUP2 MSTORE PUSH1 0x40 DUP1 DUP4 KECCAK256 DUP7 DUP5 MSTORE SWAP1 SWAP2 MSTORE DUP2 KECCAK256 PUSH1 0x1 SWAP2 DUP5 PUSH1 0x4 DUP2 GT ISZERO PUSH2 0xAE9 JUMPI PUSH2 0xAE9 PUSH2 0xEC2 JUMP JUMPDEST PUSH1 0x4 DUP2 GT ISZERO PUSH2 0xAFA JUMPI PUSH2 0xAFA PUSH2 0xEC2 JUMP JUMPDEST DUP2 MSTORE PUSH1 0x20 ADD SWAP1 DUP2 MSTORE PUSH1 0x20 ADD PUSH1 0x0 KECCAK256 PUSH1 0x0 PUSH2 0x100 EXP DUP2 SLOAD DUP2 PUSH1 0xFF MUL NOT AND SWAP1 DUP4 ISZERO ISZERO MUL OR SWAP1 SSTORE POP PUSH1 0x4 PUSH1 0x0 DUP5 DUP2 MSTORE PUSH1 0x20 ADD SWAP1 DUP2 MSTORE PUSH1 0x20 ADD PUSH1 0x0 KECCAK256 PUSH1 0x0 DUP4 PUSH1 0x4 DUP2 GT ISZERO PUSH2 0xB46 JUMPI PUSH2 0xB46 PUSH2 0xEC2 JUMP JUMPDEST PUSH1 0x4 DUP2 GT ISZERO PUSH2 0xB57 JUMPI PUSH2 0xB57 PUSH2 0xEC2 JUMP JUMPDEST DUP2 MSTORE PUSH1 0x20 ADD SWAP1 DUP2 MSTORE PUSH1 0x20 ADD PUSH1 0x0 KECCAK256 PUSH1 0x0 DUP2 SLOAD DUP1 SWAP3 SWAP2 SWAP1 PUSH2 0xB76 SWAP1 PUSH2 0xFD8 JUMP JUMPDEST SWAP1 SWAP2 SSTORE POP POP PUSH1 0x1 PUSH1 0x1 PUSH1 0xA0 SHL SUB DUP5 AND PUSH1 0x0 DUP2 DUP2 MSTORE PUSH1 0x7 PUSH1 0x20 SWAP1 DUP2 MSTORE PUSH1 0x40 DUP1 DUP4 KECCAK256 DUP8 DUP5 MSTORE SWAP1 SWAP2 MSTORE SWAP1 DUP2 SWAP1 KECCAK256 TIMESTAMP SWAP1 SSTORE MLOAD DUP5 SWAP2 SWAP1 PUSH32 0x26F2AE740C362EEAFE9EAD81EF47557289A24BB312A4ACF7DF6782482AE6502C SWAP1 PUSH2 0xBD6 SWAP1 DUP7 SWAP1 DUP7 SWAP1 PUSH2 0xF60 JUMP JUMPDEST PUSH1 0x40 MLOAD DUP1 SWAP2 SUB SWAP1 LOG3 POP PUSH2 0xBE8 PUSH1 0x1 DUP1 SSTORE JUMP JUMPDEST POP POP POP JUMP JUMPDEST PUSH2 0xBF5 PUSH2 0xCAA JUMP JUMPDEST DUP1 PUSH1 0x3 PUSH1 0x0 DUP5 PUSH1 0x4 DUP2 GT ISZERO PUSH2 0xC0C JUMPI PUSH2 0xC0C PUSH2 0xEC2 JUMP JUMPDEST PUSH1 0x4 DUP2 GT ISZERO PUSH2 0xC1D JUMPI PUSH2 0xC1D PUSH2 0xEC2 JUMP JUMPDEST DUP2 MSTORE PUSH1 0x20 ADD SWAP1 DUP2 MSTORE PUSH1 0x20 ADD PUSH1 0x0 KECCAK256 DUP2 SWAP1 SSTORE POP PUSH32 0xE3F408BBEE4C8943793F63832208AB606680BFD72BFC8C49AF7151DD656FF4CA DUP3 DUP3 PUSH1 0x40 MLOAD PUSH2 0xC60 SWAP3 SWAP2 SWAP1 PUSH2 0xF60 JUMP JUMPDEST PUSH1 0x40 MLOAD DUP1 SWAP2 SUB SWAP1 LOG1 POP POP JUMP JUMPDEST PUSH2 0xC74 PUSH2 0xCAA JUMP JUMPDEST PUSH1 0x1 PUSH1 0x1 PUSH1 0xA0 SHL SUB DUP2 AND PUSH2 0xC9E JUMPI PUSH1 0x40 MLOAD PUSH4 0x1E4FBDF7 PUSH1 0xE0 SHL DUP2 MSTORE PUSH1 0x0 PUSH1 0x4 DUP3 ADD MSTORE PUSH1 0x24 ADD PUSH2 0x4F6 JUMP JUMPDEST PUSH2 0xCA7 DUP2 PUSH2 0xCD7 JUMP JUMPDEST POP JUMP JUMPDEST PUSH1 0x0 SLOAD PUSH1 0x1 PUSH1 0x1 PUSH1 0xA0 SHL SUB AND CALLER EQ PUSH2 0x492 JUMPI PUSH1 0x40 MLOAD PUSH4 0x118CDAA7 PUSH1 0xE0 SHL DUP2 MSTORE CALLER PUSH1 0x4 DUP3 ADD MSTORE PUSH1 0x24 ADD PUSH2 0x4F6 JUMP JUMPDEST PUSH1 0x0 DUP1 SLOAD PUSH1 0x1 PUSH1 0x1 PUSH1 0xA0 SHL SUB DUP4 DUP2 AND PUSH1 0x1 PUSH1 0x1 PUSH1 0xA0 SHL SUB NOT DUP4 AND DUP2 OR DUP5 SSTORE PUSH1 0x40 MLOAD SWAP2 SWAP1 SWAP3 AND SWAP3 DUP4 SWAP2 PUSH32 0x8BE0079C531659141344CD1FD0A4F28419497F9722A3DAAFE3B4186F6B6457E0 SWAP2 SWAP1 LOG3 POP POP JUMP JUMPDEST PUSH1 0x2 PUSH1 0x1 SLOAD SUB PUSH2 0xD4A JUMPI PUSH1 0x40 MLOAD PUSH4 0x3EE5AEB5 PUSH1 0xE0 SHL DUP2 MSTORE PUSH1 0x4 ADD PUSH1 0x40 MLOAD DUP1 SWAP2 SUB SWAP1 REVERT JUMPDEST PUSH1 0x2 PUSH1 0x1 SSTORE JUMP JUMPDEST DUP1 CALLDATALOAD PUSH1 0x5 DUP2 LT PUSH2 0xD60 JUMPI PUSH1 0x0 DUP1 REVERT JUMPDEST SWAP2 SWAP1 POP JUMP JUMPDEST PUSH1 0x0 DUP1 PUSH1 0x40 DUP4 DUP6 SUB SLT ISZERO PUSH2 0xD78 JUMPI PUSH1 0x0 DUP1 REVERT JUMPDEST DUP3 CALLDATALOAD SWAP2 POP PUSH2 0xD88 PUSH1 0x20 DUP5 ADD PUSH2 0xD51 JUMP JUMPDEST SWAP1 POP SWAP3 POP SWAP3 SWAP1 POP JUMP JUMPDEST DUP1 CALLDATALOAD PUSH1 0x1 PUSH1 0x1 PUSH1 0xA0 SHL SUB DUP2 AND DUP2 EQ PUSH2 0xD60 JUMPI PUSH1 0x0 DUP1 REVERT JUMPDEST PUSH1 0x0 DUP1 PUSH1 0x0 PUSH1 0x60 DUP5 DUP7 SUB SLT ISZERO PUSH2 0xDBD JUMPI PUSH1 0x0 DUP1 REVERT JUMPDEST PUSH2 0xDC6 DUP5 PUSH2 0xD91 JUMP JUMPDEST SWAP3 POP PUSH1 0x20 DUP5 ADD CALLDATALOAD SWAP2 POP PUSH2 0xDDB PUSH1 0x40 DUP6 ADD PUSH2 0xD51 JUMP JUMPDEST SWAP1 POP SWAP3 POP SWAP3 POP SWAP3 JUMP JUMPDEST PUSH1 0x0 PUSH1 0x20 DUP3 DUP5 SUB SLT ISZERO PUSH2 0xDF6 JUMPI PUSH1 0x0 DUP1 REVERT JUMPDEST POP CALLDATALOAD SWAP2 SWAP1 POP JUMP JUMPDEST PUSH1 0x0 PUSH1 0x20 DUP3 DUP5 SUB SLT ISZERO PUSH2 0xE0F JUMPI PUSH1 0x0 DUP1 REVERT JUMPDEST PUSH2 0xE18 DUP3 PUSH2 0xD51 JUMP JUMPDEST SWAP4 SWAP3 POP POP POP JUMP JUMPDEST PUSH1 0x0 DUP1 PUSH1 0x40 DUP4 DUP6 SUB SLT ISZERO PUSH2 0xE32 JUMPI PUSH1 0x0 DUP1 REVERT JUMPDEST PUSH2 0xE3B DUP4 PUSH2 0xD91 JUMP JUMPDEST SWAP5 PUSH1 0x20 SWAP4 SWAP1 SWAP4 ADD CALLDATALOAD SWAP4 POP POP POP JUMP JUMPDEST PUSH1 0x0 DUP1 PUSH1 0x0 DUP1 PUSH1 0x80 DUP6 DUP8 SUB SLT ISZERO PUSH2 0xE5F JUMPI PUSH1 0x0 DUP1 REVERT JUMPDEST PUSH2 0xE68 DUP6 PUSH2 0xD91 JUMP JUMPDEST SWAP4 POP PUSH2 0xE76 PUSH1 0x20 DUP7 ADD PUSH2 0xD91 JUMP JUMPDEST SWAP4 SWAP7 SWAP4 SWAP6 POP POP POP POP PUSH1 0x40 DUP3 ADD CALLDATALOAD SWAP2 PUSH1 0x60 ADD CALLDATALOAD SWAP1 JUMP JUMPDEST PUSH1 0x0 DUP1 PUSH1 0x40 DUP4 DUP6 SUB SLT ISZERO PUSH2 0xE9E JUMPI PUSH1 0x0 DUP1 REVERT JUMPDEST PUSH2 0xE3B DUP4 PUSH2 0xD51 JUMP JUMPDEST PUSH1 0x0 PUSH1 0x20 DUP3 DUP5 SUB SLT ISZERO PUSH2 0xEB9 JUMPI PUSH1 0x0 DUP1 REVERT JUMPDEST PUSH2 0xE18 DUP3 PUSH2 0xD91 JUMP JUMPDEST PUSH4 0x4E487B71 PUSH1 0xE0 SHL PUSH1 0x0 MSTORE PUSH1 0x21 PUSH1 0x4 MSTORE PUSH1 0x24 PUSH1 0x0 REVERT JUMPDEST PUSH1 0x0 PUSH1 0x20 DUP3 DUP5 SUB SLT ISZERO PUSH2 0xEEA JUMPI PUSH1 0x0 DUP1 REVERT JUMPDEST DUP2 MLOAD DUP1 ISZERO ISZERO DUP2 EQ PUSH2 0xE18 JUMPI PUSH1 0x0 DUP1 REVERT JUMPDEST PUSH1 0x20 DUP1 DUP3 MSTORE PUSH1 0x24 SWAP1 DUP3 ADD MSTORE PUSH32 0x456E676167656D656E745265776172643A20496E76616C696420636F6E74656E PUSH1 0x40 DUP3 ADD MSTORE PUSH4 0x1D081251 PUSH1 0xE2 SHL PUSH1 0x60 DUP3 ADD MSTORE PUSH1 0x80 ADD SWAP1 JUMP JUMPDEST PUSH1 0x5 DUP2 LT PUSH2 0xF5C JUMPI PUSH4 0x4E487B71 PUSH1 0xE0 SHL PUSH1 0x0 MSTORE PUSH1 0x21 PUSH1 0x4 MSTORE PUSH1 0x24 PUSH1 0x0 REVERT JUMPDEST SWAP1 MSTORE JUMP JUMPDEST PUSH1 0x40 DUP2 ADD PUSH2 0xF6E DUP3 DUP6 PUSH2 0xF3E JUMP JUMPDEST DUP3 PUSH1 0x20 DUP4 ADD MSTORE SWAP4 SWAP3 POP POP POP JUMP JUMPDEST PUSH4 0x4E487B71 PUSH1 0xE0 SHL PUSH1 0x0 MSTORE PUSH1 0x11 PUSH1 0x4 MSTORE PUSH1 0x24 PUSH1 0x0 REVERT JUMPDEST DUP1 DUP3 ADD DUP1 DUP3 GT ISZERO PUSH2 0x377 JUMPI PUSH2 0x377 PUSH2 0xF7B JUMP JUMPDEST PUSH1 0x1 PUSH1 0x1 PUSH1 0xA0 SHL SUB DUP6 AND DUP2 MSTORE PUSH1 0x20 DUP2 ADD DUP5 SWAP1 MSTORE PUSH1 0x40 DUP2 ADD DUP4 SWAP1 MSTORE PUSH1 0x80 DUP2 ADD PUSH2 0xFCF PUSH1 0x60 DUP4 ADD DUP5 PUSH2 0xF3E JUMP JUMPDEST SWAP6 SWAP5 POP POP POP POP POP JUMP JUMPDEST PUSH1 0x0 PUSH1 0x1 DUP3 ADD PUSH2 0xFEA JUMPI PUSH2 0xFEA PUSH2 0xF7B JUMP JUMPDEST POP PUSH1 0x1 ADD SWAP1 JUMP INVALID LOG2 PUSH5 0x6970667358 0x22 SLT KECCAK256 0x4C DUP11 0xCD MULMOD RETURN CALLVALUE 0xEB 0x2B DUP4 0xAD PUSH5 0x3B18C7F249 COINBASE SIGNEXTEND PUSH28 0x2AA70CF8DCF778645B1B733F1F64736F6C6343000818003300000000 "},"methodIdentifiers":{"MAX_ENGAGEMENTS_PER_USER()":"a404af60","creatorToken()":"483a5f14","emergencyWithdraw(uint256)":"5312ea8e","engagementCooldown()":"0af4b05d","engagementCounts(bytes32,uint8)":"76e7e0bb","getContentEngagement(bytes32)":"8c390221","getEngagementCount(bytes32,uint8)":"1726aab9","getRewardRate(uint8)":"883b9b8c","hasEngaged(address,bytes32,uint8)":"67a689d9","hasUserEngaged(address,bytes32,uint8)":"24c5a0ff","lastEngagementTime(address,bytes32)":"677298b3","owner()":"8da5cb5b","renounceOwnership()":"715018a6","rewardEngagement(address,bytes32,uint8)":"bd3e3461","rewardRates(uint8)":"541cb57f","rewardTip(address,address,bytes32,uint256)":"8a5af7f4","transferOwnership(address)":"f2fde38b","updateEngagementCooldown(uint256)":"78980966","updateRewardRate(uint8,uint256)":"e0b1fb06"}}}}}