{
  "_format": "hh-sol-artifact-1",
  "contractName": "EngagementReward",
  "sourceName": "contracts/EngagementReward.sol",
  "abi": [
    {
      "inputs": [
        {
          "internalType": "address",
          "name": "_creatorToken",
          "type": "address"
        }
      ],
      "stateMutability": "nonpayable",
      "type": "constructor"
    },
    {
      "inputs": [
        {
          "internalType": "address",
          "name": "owner",
          "type": "address"
        }
      ],
      "name": "OwnableInvalidOwner",
      "type": "error"
    },
    {
      "inputs": [
        {
          "internalType": "address",
          "name": "account",
          "type": "address"
        }
      ],
      "name": "OwnableUnauthorizedAccount",
      "type": "error"
    },
    {
      "inputs": [],
      "name": "ReentrancyGuardReentrantCall",
      "type": "error"
    },
    {
      "anonymous": false,
      "inputs": [
        {
          "indexed": true,
          "internalType": "address",
          "name": "user",
          "type": "address"
        },
        {
          "indexed": true,
          "internalType": "bytes32",
          "name": "contentId",
          "type": "bytes32"
        },
        {
          "indexed": false,
          "internalType": "enum CreatorToken.RewardType",
          "name": "rewardType",
          "type": "uint8"
        },
        {
          "indexed": false,
          "internalType": "uint256",
          "name": "amount",
          "type": "uint256"
        }
      ],
      "name": "EngagementRewarded",
      "type": "event"
    },
    {
      "anonymous": false,
      "inputs": [
        {
          "indexed": true,
          "internalType": "address",
          "name": "previousOwner",
          "type": "address"
        },
        {
          "indexed": true,
          "internalType": "address",
          "name": "newOwner",
          "type": "address"
        }
      ],
      "name": "OwnershipTransferred",
      "type": "event"
    },
    {
      "anonymous": false,
      "inputs": [
        {
          "indexed": false,
          "internalType": "enum CreatorToken.RewardType",
          "name": "rewardType",
          "type": "uint8"
        },
        {
          "indexed": false,
          "internalType": "uint256",
          "name": "newRate",
          "type": "uint256"
        }
      ],
      "name": "RewardRateUpdated",
      "type": "event"
    },
    {
      "inputs": [],
      "name": "MAX_ENGAGEMENTS_PER_USER",
      "outputs": [
        {
          "internalType": "uint256",
          "name": "",
          "type": "uint256"
        }
      ],
      "stateMutability": "view",
      "type": "function"
    },
    {
      "inputs": [],
      "name": "creatorToken",
      "outputs": [
        {
          "internalType": "contract CreatorToken",
          "name": "",
          "type": "address"
        }
      ],
      "stateMutability": "view",
      "type": "function"
    },
    {
      "inputs": [
        {
          "internalType": "uint256",
          "name": "amount",
          "type": "uint256"
        }
      ],
      "name": "emergencyWithdraw",
      "outputs": [],
      "stateMutability": "nonpayable",
      "type": "function"
    },
    {
      "inputs": [],
      "name": "engagementCooldown",
      "outputs": [
        {
          "internalType": "uint256",
          "name": "",
          "type": "uint256"
        }
      ],
      "stateMutability": "view",
      "type": "function"
    },
    {
      "inputs": [
        {
          "internalType": "bytes32",
          "name": "",
          "type": "bytes32"
        },
        {
          "internalType": "enum CreatorToken.RewardType",
          "name": "",
          "type": "uint8"
        }
      ],
      "name": "engagementCounts",
      "outputs": [
        {
          "internalType": "uint256",
          "name": "",
          "type": "uint256"
        }
      ],
      "stateMutability": "view",
      "type": "function"
    },
    {
      "inputs": [
        {
          "internalType": "bytes32",
          "name": "contentId",
          "type": "bytes32"
        }
      ],
      "name": "getContentEngagement",
      "outputs": [
        {
          "internalType": "uint256",
          "name": "likes",
          "type": "uint256"
        },
        {
          "internalType": "uint256",
          "name": "comments",
          "type": "uint256"
        },
        {
          "internalType": "uint256",
          "name": "shares",
          "type": "uint256"
        },
        {
          "internalType": "uint256",
          "name": "remixes",
          "type": "uint256"
        },
        {
          "internalType": "uint256",
          "name": "totalEngagements",
          "type": "uint256"
        }
      ],
      "stateMutability": "view",
      "type": "function"
    },
    {
      "inputs": [
        {
          "internalType": "bytes32",
          "name": "contentId",
          "type": "bytes32"
        },
        {
          "internalType": "enum CreatorToken.RewardType",
          "name": "rewardType",
          "type": "uint8"
        }
      ],
      "name": "getEngagementCount",
      "outputs": [
        {
          "internalType": "uint256",
          "name": "",
          "type": "uint256"
        }
      ],
      "stateMutability": "view",
      "type": "function"
    },
    {
      "inputs": [
        {
          "internalType": "enum CreatorToken.RewardType",
          "name": "rewardType",
          "type": "uint8"
        }
      ],
      "name": "getRewardRate",
      "outputs": [
        {
          "internalType": "uint256",
          "name": "",
          "type": "uint256"
        }
      ],
      "stateMutability": "view",
      "type": "function"
    },
    {
      "inputs": [
        {
          "internalType": "address",
          "name": "",
          "type": "address"
        },
        {
          "internalType": "bytes32",
          "name": "",
          "type": "bytes32"
        },
        {
          "internalType": "enum CreatorToken.RewardType",
          "name": "",
          "type": "uint8"
        }
      ],
      "name": "hasEngaged",
      "outputs": [
        {
          "internalType": "bool",
          "name": "",
          "type": "bool"
        }
      ],
      "stateMutability": "view",
      "type": "function"
    },
    {
      "inputs": [
        {
          "internalType": "address",
          "name": "user",
          "type": "address"
        },
        {
          "internalType": "bytes32",
          "name": "contentId",
          "type": "bytes32"
        },
        {
          "internalType": "enum CreatorToken.RewardType",
          "name": "rewardType",
          "type": "uint8"
        }
      ],
      "name": "hasUserEngaged",
      "outputs": [
        {
          "internalType": "bool",
          "name": "",
          "type": "bool"
        }
      ],
      "stateMutability": "view",
      "type": "function"
    },
    {
      "inputs": [
        {
          "internalType": "address",
          "name": "",
          "type": "address"
        },
        {
          "internalType": "bytes32",
          "name": "",
          "type": "bytes32"
        }
      ],
      "name": "lastEngagementTime",
      "outputs": [
        {
          "internalType": "uint256",
          "name": "",
          "type": "uint256"
        }
      ],
      "stateMutability": "view",
      "type": "function"
    },
    {
      "inputs": [],
      "name": "owner",
      "outputs": [
        {
          "internalType": "address",
          "name": "",
          "type": "address"
        }
      ],
      "stateMutability": "view",
      "type": "function"
    },
    {
      "inputs": [],
      "name": "renounceOwnership",
      "outputs": [],
      "stateMutability": "nonpayable",
      "type": "function"
    },
    {
      "inputs": [
        {
          "internalType": "address",
          "name": "user",
          "type": "address"
        },
        {
          "internalType": "bytes32",
          "name": "contentId",
          "type": "bytes32"
        },
        {
          "internalType": "enum CreatorToken.RewardType",
          "name": "rewardType",
          "type": "uint8"
        }
      ],
      "name": "rewardEngagement",
      "outputs": [],
      "stateMutability": "nonpayable",
      "type": "function"
    },
    {
      "inputs": [
        {
          "internalType": "enum CreatorToken.RewardType",
          "name": "",
          "type": "uint8"
        }
      ],
      "name": "rewardRates",
      "outputs": [
        {
          "internalType": "uint256",
          "name": "",
          "type": "uint256"
        }
      ],
      "stateMutability": "view",
      "type": "function"
    },
    {
      "inputs": [
        {
          "internalType": "address",
          "name": "from",
          "type": "address"
        },
        {
          "internalType": "address",
          "name": "to",
          "type": "address"
        },
        {
          "internalType": "bytes32",
          "name": "contentId",
          "type": "bytes32"
        },
        {
          "internalType": "uint256",
          "name": "amount",
          "type": "uint256"
        }
      ],
      "name": "rewardTip",
      "outputs": [],
      "stateMutability": "nonpayable",
      "type": "function"
    },
    {
      "inputs": [
        {
          "internalType": "address",
          "name": "newOwner",
          "type": "address"
        }
      ],
      "name": "transferOwnership",
      "outputs": [],
      "stateMutability": "nonpayable",
      "type": "function"
    },
    {
      "inputs": [
        {
          "internalType": "uint256",
          "name": "newCooldown",
          "type": "uint256"
        }
      ],
      "name": "updateEngagementCooldown",
      "outputs": [],
      "stateMutability": "nonpayable",
      "type": "function"
    },
    {
      "inputs": [
        {
          "internalType": "enum CreatorToken.RewardType",
          "name": "rewardType",
          "type": "uint8"
        },
        {
          "internalType": "uint256",
          "name": "newRate",
          "type": "uint256"
        }
      ],
      "name": "updateRewardRate",
      "outputs": [],
      "stateMutability": "nonpayable",
      "type": "function"
    }
  ],
  "bytecode": "0x6080604052610e1060065534801561001657600080fd5b5060405161128838038061128883398101604081905261003591610222565b338061005c57604051631e4fbdf760e01b8152600060048201526024015b60405180910390fd5b610065816101d2565b50600180556001600160a01b0381166100d05760405162461bcd60e51b815260206004820152602760248201527f456e676167656d656e745265776172643a20496e76616c696420746f6b656e206044820152666164647265737360c81b6064820152608401610053565b600280546001600160a01b0319166001600160a01b03929092169190911790556003602052678ac7230489e800007f3617319a054d772f909f7c479a2cebe5066e836a939412e32403c99029b92eff5568015af1d78b58c400007fa15bc60c955c405d20d9149c709e2460f1c2d9a497496a7f46004d1772c3054c556802b5e3af16b18800007fc3a24b0501bd2c13a7e57f2db4369ec4c223447539fc0724a9d55ac4a06ebd4d5568056bc75e2d631000007fcbc4e5fb02c3d1de23a9f1e014b4d2ee5aeaea9505df5e855c9210bf472495af55600460009081527f83ec6a1f0257b830b5e016457c9cf1435391bf56cc98f369a58a54fe9377246555610252565b600080546001600160a01b038381166001600160a01b0319831681178455604051919092169283917f8be0079c531659141344cd1fd0a4f28419497f9722a3daafe3b4186f6b6457e09190a35050565b60006020828403121561023457600080fd5b81516001600160a01b038116811461024b57600080fd5b9392505050565b611027806102616000396000f3fe608060405234801561001057600080fd5b50600436106101215760003560e01c806376e7e0bb116100ad5780638da5cb5b116100715780638da5cb5b146102de578063a404af60146102ef578063bd3e3461146102f7578063e0b1fb061461030a578063f2fde38b1461031d57600080fd5b806376e7e0bb1461023f578063789809661461026a578063883b9b8c1461027d5780638a5af7f4146102905780638c390221146102a357600080fd5b80635312ea8e116100f45780635312ea8e146101a3578063541cb57f146101b8578063677298b3146101d857806367a689d914610203578063715018a61461023757600080fd5b80630af4b05d146101265780631726aab91461014257806324c5a0ff14610155578063483a5f1414610178575b600080fd5b61012f60065481565b6040519081526020015b60405180910390f35b61012f610150366004610d65565b610330565b610168610163366004610da8565b61037d565b6040519015158152602001610139565b60025461018b906001600160a01b031681565b6040516001600160a01b039091168152602001610139565b6101b66101b1366004610de4565b6103e0565b005b61012f6101c6366004610dfd565b60036020526000908152604090205481565b61012f6101e6366004610e1f565b600760209081526000928352604080842090915290825290205481565b610168610211366004610da8565b600560209081526000938452604080852082529284528284209052825290205460ff1681565b6101b6610480565b61012f61024d366004610d65565b600460209081526000928352604080842090915290825290205481565b6101b6610278366004610de4565b610494565b61012f61028b366004610dfd565b610563565b6101b661029e366004610e49565b6105a2565b6102b66102b1366004610de4565b61076b565b604080519586526020860194909452928401919091526060830152608082015260a001610139565b6000546001600160a01b031661018b565b61012f600181565b6101b6610305366004610da8565b6107cf565b6101b6610318366004610e8b565b610bed565b6101b661032b366004610ea7565b610c6c565b60008281526004602081905260408220908290849081111561035457610354610ec2565b600481111561036557610365610ec2565b81526020019081526020016000205490505b92915050565b6001600160a01b03831660009081526005602090815260408083208584529091528120818360048111156103b3576103b3610ec2565b60048111156103c4576103c4610ec2565b815260208101919091526040016000205460ff16949350505050565b6103e8610caa565b6002546001600160a01b031663a9059cbb61040b6000546001600160a01b031690565b6040516001600160e01b031960e084901b1681526001600160a01b039091166004820152602481018490526044016020604051808303816000875af1158015610458573d6000803e3d6000fd5b505050506040513d601f19601f8201168201806040525081019061047c9190610ed8565b5050565b610488610caa565b6104926000610cd7565b565b61049c610caa565b61012c8110156104ff5760405162461bcd60e51b8152602060048201526024808201527f456e676167656d656e745265776172643a20436f6f6c646f776e20746f6f20736044820152631a1bdc9d60e21b60648201526084015b60405180910390fd5b6201518081111561055e5760405162461bcd60e51b815260206004820152602360248201527f456e676167656d656e745265776172643a20436f6f6c646f776e20746f6f206c6044820152626f6e6760e81b60648201526084016104f6565b600655565b60006003600083600481111561057b5761057b610ec2565b600481111561058c5761058c610ec2565b8152602001908152602001600020549050919050565b6105aa610caa565b6105b2610d27565b6001600160a01b038416158015906105d257506001600160a01b03831615155b61062a5760405162461bcd60e51b815260206004820152602360248201527f456e676167656d656e745265776172643a20496e76616c69642061646472657360448201526273657360e81b60648201526084016104f6565b816106475760405162461bcd60e51b81526004016104f690610efa565b600081116106975760405162461bcd60e51b815260206004820181905260248201527f456e676167656d656e745265776172643a20496e76616c696420616d6f756e7460448201526064016104f6565b6002546040516323b872dd60e01b81526001600160a01b038681166004830152858116602483015260448201849052909116906323b872dd906064016020604051808303816000875af11580156106f2573d6000803e3d6000fd5b505050506040513d601f19601f820116820180604052508101906107169190610ed8565b5081836001600160a01b03167f26f2ae740c362eeafe9ead81ef47557289a24bb312a4acf7df6782482ae6502c600484604051610754929190610f60565b60405180910390a361076560018055565b50505050565b60008181526004602090815260408083208380529091528082205460018352818320546002845282842054600385529284205491939092919081836107b08688610f91565b6107ba9190610f91565b6107c49190610f91565b905091939590929450565b6107d7610caa565b6107df610d27565b6001600160a01b0383166108445760405162461bcd60e51b815260206004820152602660248201527f456e676167656d656e745265776172643a20496e76616c69642075736572206160448201526564647265737360d01b60648201526084016104f6565b816108615760405162461bcd60e51b81526004016104f690610efa565b6006546001600160a01b03841660009081526007602090815260408083208684529091529020546108929190610f91565b4210156108f65760405162461bcd60e51b815260206004820152602c60248201527f456e676167656d656e745265776172643a20436f6f6c646f776e20706572696f60448201526b19081b9bdd081c185cdcd95960a21b60648201526084016104f6565b6001600160a01b038316600090815260056020908152604080832085845290915281209082600481111561092c5761092c610ec2565b600481111561093d5761093d610ec2565b815260208101919091526040016000205460ff16156109ad5760405162461bcd60e51b815260206004820152602660248201527f456e676167656d656e745265776172643a205573657220616c726561647920656044820152651b99d859d95960d21b60648201526084016104f6565b6000600360008360048111156109c5576109c5610ec2565b60048111156109d6576109d6610ec2565b815260200190815260200160002054905060008111610a495760405162461bcd60e51b815260206004820152602960248201527f456e676167656d656e745265776172643a204e6f2072657761726420666f722060448201526874686973207479706560b81b60648201526084016104f6565b60025460405163126b5bc960e01b81526001600160a01b039091169063126b5bc990610a7f908790859088908890600401610fa4565b600060405180830381600087803b158015610a9957600080fd5b505af1158015610aad573d6000803e3d6000fd5b505050506001600160a01b03841660009081526005602090815260408083208684529091528120600191846004811115610ae957610ae9610ec2565b6004811115610afa57610afa610ec2565b815260200190815260200160002060006101000a81548160ff021916908315150217905550600460008481526020019081526020016000206000836004811115610b4657610b46610ec2565b6004811115610b5757610b57610ec2565b81526020019081526020016000206000815480929190610b7690610fd8565b90915550506001600160a01b038416600081815260076020908152604080832087845290915290819020429055518491907f26f2ae740c362eeafe9ead81ef47557289a24bb312a4acf7df6782482ae6502c90610bd69086908690610f60565b60405180910390a350610be860018055565b505050565b610bf5610caa565b8060036000846004811115610c0c57610c0c610ec2565b6004811115610c1d57610c1d610ec2565b8152602001908152602001600020819055507fe3f408bbee4c8943793f63832208ab606680bfd72bfc8c49af7151dd656ff4ca8282604051610c60929190610f60565b60405180910390a15050565b610c74610caa565b6001600160a01b038116610c9e57604051631e4fbdf760e01b8152600060048201526024016104f6565b610ca781610cd7565b50565b6000546001600160a01b031633146104925760405163118cdaa760e01b81523360048201526024016104f6565b600080546001600160a01b038381166001600160a01b0319831681178455604051919092169283917f8be0079c531659141344cd1fd0a4f28419497f9722a3daafe3b4186f6b6457e09190a35050565b600260015403610d4a57604051633ee5aeb560e01b815260040160405180910390fd5b6002600155565b803560058110610d6057600080fd5b919050565b60008060408385031215610d7857600080fd5b82359150610d8860208401610d51565b90509250929050565b80356001600160a01b0381168114610d6057600080fd5b600080600060608486031215610dbd57600080fd5b610dc684610d91565b925060208401359150610ddb60408501610d51565b90509250925092565b600060208284031215610df657600080fd5b5035919050565b600060208284031215610e0f57600080fd5b610e1882610d51565b9392505050565b60008060408385031215610e3257600080fd5b610e3b83610d91565b946020939093013593505050565b60008060008060808587031215610e5f57600080fd5b610e6885610d91565b9350610e7660208601610d91565b93969395505050506040820135916060013590565b60008060408385031215610e9e57600080fd5b610e3b83610d51565b600060208284031215610eb957600080fd5b610e1882610d91565b634e487b7160e01b600052602160045260246000fd5b600060208284031215610eea57600080fd5b81518015158114610e1857600080fd5b60208082526024908201527f456e676167656d656e745265776172643a20496e76616c696420636f6e74656e6040820152631d08125160e21b606082015260800190565b60058110610f5c57634e487b7160e01b600052602160045260246000fd5b9052565b60408101610f6e8285610f3e565b8260208301529392505050565b634e487b7160e01b600052601160045260246000fd5b8082018082111561037757610377610f7b565b6001600160a01b0385168152602081018490526040810183905260808101610fcf6060830184610f3e565b95945050505050565b600060018201610fea57610fea610f7b565b506001019056fea26469706673582212204c8acd09f334eb2b83ad643b18c7f249410b7b2aa70cf8dcf778645b1b733f1f64736f6c63430008180033",
  "linkReferences": {},
  "deployedLinkReferences": {}
}