{
  "_format": "hh-sol-artifact-1",
  "contractName": "CreatorToken",
  "sourceName": "contracts/CreatorToken.sol",
  "abi": [
    {
      "inputs": [
        {
          "internalType": "string",
          "name": "name",
          "type": "string"
        },
        {
          "internalType": "string",
          "name": "symbol",
          "type": "string"
        },
        {
          "internalType": "address",
          "name": "initialOwner",
          "type": "address"
        }
      ],
      "stateMutability": "nonpayable",
      "type": "constructor"
    },
    {
      "inputs": [
        {
          "internalType": "address",
          "name": "spender",
          "type": "address"
        },
        {
          "internalType": "uint256",
          "name": "allowance",
          "type": "uint256"
        },
        {
          "internalType": "uint256",
          "name": "needed",
          "type": "uint256"
        }
      ],
      "name": "ERC20InsufficientAllowance",
      "type": "error"
    },
    {
      "inputs": [
        {
          "internalType": "address",
          "name": "sender",
          "type": "address"
        },
        {
          "internalType": "uint256",
          "name": "balance",
          "type": "uint256"
        },
        {
          "internalType": "uint256",
          "name": "needed",
          "type": "uint256"
        }
      ],
      "name": "ERC20InsufficientBalance",
      "type": "error"
    },
    {
      "inputs": [
        {
          "internalType": "address",
          "name": "approver",
          "type": "address"
        }
      ],
      "name": "ERC20InvalidApprover",
      "type": "error"
    },
    {
      "inputs": [
        {
          "internalType": "address",
          "name": "receiver",
          "type": "address"
        }
      ],
      "name": "ERC20InvalidReceiver",
      "type": "error"
    },
    {
      "inputs": [
        {
          "internalType": "address",
          "name": "sender",
          "type": "address"
        }
      ],
      "name": "ERC20InvalidSender",
      "type": "error"
    },
    {
      "inputs": [
        {
          "internalType": "address",
          "name": "spender",
          "type": "address"
        }
      ],
      "name": "ERC20InvalidSpender",
      "type": "error"
    },
    {
      "inputs": [
        {
          "internalType": "address",
          "name": "owner",
          "type": "address"
        }
      ],
      "name": "OwnableInvalidOwner",
      "type": "error"
    },
    {
      "inputs": [
        {
          "internalType": "address",
          "name": "account",
          "type": "address"
        }
      ],
      "name": "OwnableUnauthorizedAccount",
      "type": "error"
    },
    {
      "inputs": [],
      "name": "ReentrancyGuardReentrantCall",
      "type": "error"
    },
    {
      "anonymous": false,
      "inputs": [
        {
          "indexed": true,
          "internalType": "address",
          "name": "owner",
          "type": "address"
        },
        {
          "indexed": true,
          "internalType": "address",
          "name": "spender",
          "type": "address"
        },
        {
          "indexed": false,
          "internalType": "uint256",
          "name": "value",
          "type": "uint256"
        }
      ],
      "name": "Approval",
      "type": "event"
    },
    {
      "anonymous": false,
      "inputs": [
        {
          "indexed": true,
          "internalType": "address",
          "name": "previousOwner",
          "type": "address"
        },
        {
          "indexed": true,
          "internalType": "address",
          "name": "newOwner",
          "type": "address"
        }
      ],
      "name": "OwnershipTransferred",
      "type": "event"
    },
    {
      "anonymous": false,
      "inputs": [
        {
          "indexed": true,
          "internalType": "address",
          "name": "from",
          "type": "address"
        },
        {
          "indexed": false,
          "internalType": "uint256",
          "name": "amount",
          "type": "uint256"
        },
        {
          "indexed": false,
          "internalType": "string",
          "name": "reason",
          "type": "string"
        }
      ],
      "name": "TokensBurned",
      "type": "event"
    },
    {
      "anonymous": false,
      "inputs": [
        {
          "indexed": true,
          "internalType": "address",
          "name": "to",
          "type": "address"
        },
        {
          "indexed": false,
          "internalType": "uint256",
          "name": "amount",
          "type": "uint256"
        },
        {
          "indexed": false,
          "internalType": "string",
          "name": "reason",
          "type": "string"
        }
      ],
      "name": "TokensMinted",
      "type": "event"
    },
    {
      "anonymous": false,
      "inputs": [
        {
          "indexed": true,
          "internalType": "address",
          "name": "from",
          "type": "address"
        },
        {
          "indexed": true,
          "internalType": "address",
          "name": "to",
          "type": "address"
        },
        {
          "indexed": false,
          "internalType": "uint256",
          "name": "value",
          "type": "uint256"
        }
      ],
      "name": "Transfer",
      "type": "event"
    },
    {
      "inputs": [],
      "name": "MAX_SUPPLY",
      "outputs": [
        {
          "internalType": "uint256",
          "name": "",
          "type": "uint256"
        }
      ],
      "stateMutability": "view",
      "type": "function"
    },
    {
      "inputs": [
        {
          "internalType": "address",
          "name": "owner",
          "type": "address"
        },
        {
          "internalType": "address",
          "name": "spender",
          "type": "address"
        }
      ],
      "name": "allowance",
      "outputs": [
        {
          "internalType": "uint256",
          "name": "",
          "type": "uint256"
        }
      ],
      "stateMutability": "view",
      "type": "function"
    },
    {
      "inputs": [
        {
          "internalType": "address",
          "name": "spender",
          "type": "address"
        },
        {
          "internalType": "uint256",
          "name": "value",
          "type": "uint256"
        }
      ],
      "name": "approve",
      "outputs": [
        {
          "internalType": "bool",
          "name": "",
          "type": "bool"
        }
      ],
      "stateMutability": "nonpayable",
      "type": "function"
    },
    {
      "inputs": [
        {
          "internalType": "address",
          "name": "account",
          "type": "address"
        }
      ],
      "name": "balanceOf",
      "outputs": [
        {
          "internalType": "uint256",
          "name": "",
          "type": "uint256"
        }
      ],
      "stateMutability": "view",
      "type": "function"
    },
    {
      "inputs": [
        {
          "internalType": "uint256",
          "name": "value",
          "type": "uint256"
        }
      ],
      "name": "burn",
      "outputs": [],
      "stateMutability": "nonpayable",
      "type": "function"
    },
    {
      "inputs": [
        {
          "internalType": "address",
          "name": "account",
          "type": "address"
        },
        {
          "internalType": "uint256",
          "name": "value",
          "type": "uint256"
        }
      ],
      "name": "burnFrom",
      "outputs": [],
      "stateMutability": "nonpayable",
      "type": "function"
    },
    {
      "inputs": [],
      "name": "decimals",
      "outputs": [
        {
          "internalType": "uint8",
          "name": "",
          "type": "uint8"
        }
      ],
      "stateMutability": "view",
      "type": "function"
    },
    {
      "inputs": [
        {
          "internalType": "address",
          "name": "",
          "type": "address"
        },
        {
          "internalType": "bytes32",
          "name": "",
          "type": "bytes32"
        },
        {
          "internalType": "enum CreatorToken.RewardType",
          "name": "",
          "type": "uint8"
        }
      ],
      "name": "engagementRewards",
      "outputs": [
        {
          "internalType": "uint256",
          "name": "",
          "type": "uint256"
        }
      ],
      "stateMutability": "view",
      "type": "function"
    },
    {
      "inputs": [
        {
          "internalType": "address",
          "name": "user",
          "type": "address"
        },
        {
          "internalType": "bytes32",
          "name": "contentId",
          "type": "bytes32"
        },
        {
          "internalType": "enum CreatorToken.RewardType",
          "name": "rewardType",
          "type": "uint8"
        }
      ],
      "name": "getEngagementReward",
      "outputs": [
        {
          "internalType": "uint256",
          "name": "",
          "type": "uint256"
        }
      ],
      "stateMutability": "view",
      "type": "function"
    },
    {
      "inputs": [
        {
          "internalType": "address",
          "name": "",
          "type": "address"
        },
        {
          "internalType": "bytes32",
          "name": "",
          "type": "bytes32"
        }
      ],
      "name": "hasClaimedReward",
      "outputs": [
        {
          "internalType": "bool",
          "name": "",
          "type": "bool"
        }
      ],
      "stateMutability": "view",
      "type": "function"
    },
    {
      "inputs": [
        {
          "internalType": "address",
          "name": "user",
          "type": "address"
        },
        {
          "internalType": "bytes32",
          "name": "contentId",
          "type": "bytes32"
        }
      ],
      "name": "hasUserClaimedReward",
      "outputs": [
        {
          "internalType": "bool",
          "name": "",
          "type": "bool"
        }
      ],
      "stateMutability": "view",
      "type": "function"
    },
    {
      "inputs": [
        {
          "internalType": "address",
          "name": "to",
          "type": "address"
        },
        {
          "internalType": "uint256",
          "name": "amount",
          "type": "uint256"
        }
      ],
      "name": "mintContentReward",
      "outputs": [],
      "stateMutability": "nonpayable",
      "type": "function"
    },
    {
      "inputs": [
        {
          "internalType": "address",
          "name": "to",
          "type": "address"
        },
        {
          "internalType": "uint256",
          "name": "amount",
          "type": "uint256"
        },
        {
          "internalType": "bytes32",
          "name": "contentId",
          "type": "bytes32"
        },
        {
          "internalType": "enum CreatorToken.RewardType",
          "name": "rewardType",
          "type": "uint8"
        }
      ],
      "name": "mintEngagementReward",
      "outputs": [],
      "stateMutability": "nonpayable",
      "type": "function"
    },
    {
      "inputs": [],
      "name": "name",
      "outputs": [
        {
          "internalType": "string",
          "name": "",
          "type": "string"
        }
      ],
      "stateMutability": "view",
      "type": "function"
    },
    {
      "inputs": [],
      "name": "owner",
      "outputs": [
        {
          "internalType": "address",
          "name": "",
          "type": "address"
        }
      ],
      "stateMutability": "view",
      "type": "function"
    },
    {
      "inputs": [],
      "name": "platformFee",
      "outputs": [
        {
          "internalType": "uint256",
          "name": "",
          "type": "uint256"
        }
      ],
      "stateMutability": "view",
      "type": "function"
    },
    {
      "inputs": [
        {
          "internalType": "uint256",
          "name": "amount",
          "type": "uint256"
        }
      ],
      "name": "redeemTokens",
      "outputs": [],
      "stateMutability": "nonpayable",
      "type": "function"
    },
    {
      "inputs": [],
      "name": "renounceOwnership",
      "outputs": [],
      "stateMutability": "nonpayable",
      "type": "function"
    },
    {
      "inputs": [
        {
          "internalType": "uint256",
          "name": "newFee",
          "type": "uint256"
        }
      ],
      "name": "setPlatformFee",
      "outputs": [],
      "stateMutability": "nonpayable",
      "type": "function"
    },
    {
      "inputs": [],
      "name": "symbol",
      "outputs": [
        {
          "internalType": "string",
          "name": "",
          "type": "string"
        }
      ],
      "stateMutability": "view",
      "type": "function"
    },
    {
      "inputs": [],
      "name": "totalSupply",
      "outputs": [
        {
          "internalType": "uint256",
          "name": "",
          "type": "uint256"
        }
      ],
      "stateMutability": "view",
      "type": "function"
    },
    {
      "inputs": [
        {
          "internalType": "address",
          "name": "to",
          "type": "address"
        },
        {
          "internalType": "uint256",
          "name": "value",
          "type": "uint256"
        }
      ],
      "name": "transfer",
      "outputs": [
        {
          "internalType": "bool",
          "name": "",
          "type": "bool"
        }
      ],
      "stateMutability": "nonpayable",
      "type": "function"
    },
    {
      "inputs": [
        {
          "internalType": "address",
          "name": "from",
          "type": "address"
        },
        {
          "internalType": "address",
          "name": "to",
          "type": "address"
        },
        {
          "internalType": "uint256",
          "name": "value",
          "type": "uint256"
        }
      ],
      "name": "transferFrom",
      "outputs": [
        {
          "internalType": "bool",
          "name": "",
          "type": "bool"
        }
      ],
      "stateMutability": "nonpayable",
      "type": "function"
    },
    {
      "inputs": [
        {
          "internalType": "address",
          "name": "newOwner",
          "type": "address"
        }
      ],
      "name": "transferOwnership",
      "outputs": [],
      "stateMutability": "nonpayable",
      "type": "function"
    }
  ],
  "bytecode": "0x60806040526101f46009553480156200001757600080fd5b5060405162001588380380620015888339810160408190526200003a91620001cb565b80838360036200004b8382620002e9565b5060046200005a8282620002e9565b5050506001600160a01b0381166200008c57604051631e4fbdf760e01b81526000600482015260240160405180910390fd5b6200009781620000b1565b506001600655620000a881620000b1565b505050620003b5565b600580546001600160a01b038381166001600160a01b0319831681179093556040519116919082907f8be0079c531659141344cd1fd0a4f28419497f9722a3daafe3b4186f6b6457e090600090a35050565b634e487b7160e01b600052604160045260246000fd5b600082601f8301126200012b57600080fd5b81516001600160401b038082111562000148576200014862000103565b604051601f8301601f19908116603f0116810190828211818310171562000173576200017362000103565b81604052838152602092508660208588010111156200019157600080fd5b600091505b83821015620001b5578582018301518183018401529082019062000196565b6000602085830101528094505050505092915050565b600080600060608486031215620001e157600080fd5b83516001600160401b0380821115620001f957600080fd5b620002078783880162000119565b945060208601519150808211156200021e57600080fd5b506200022d8682870162000119565b604086015190935090506001600160a01b03811681146200024d57600080fd5b809150509250925092565b600181811c908216806200026d57607f821691505b6020821081036200028e57634e487b7160e01b600052602260045260246000fd5b50919050565b601f821115620002e4576000816000526020600020601f850160051c81016020861015620002bf5750805b601f850160051c820191505b81811015620002e057828155600101620002cb565b5050505b505050565b81516001600160401b0381111562000305576200030562000103565b6200031d8162000316845462000258565b8462000294565b602080601f8311600181146200035557600084156200033c5750858301515b600019600386901b1c1916600185901b178555620002e0565b600085815260208120601f198616915b82811015620003865788860151825594840194600190910190840162000365565b5085821015620003a55787850151600019600388901b60f8161c191681555b5050505050600190811b01905550565b6111c380620003c56000396000f3fe608060405234801561001057600080fd5b50600436106101585760003560e01c806370a08231116100c35780639b8d64e11161007c5780639b8d64e114610328578063a6e158f81461033b578063a9059cbb1461034e578063dd62ed3e14610361578063e1cbcf901461039a578063f2fde38b146103ad57600080fd5b806370a0823114610290578063715018a6146102b957806379cc6790146102c15780638c99d52e146102d45780638da5cb5b1461030557806395d89b411461032057600080fd5b806323b872dd1161011557806323b872dd14610211578063240e5f801461022457806326232a2e14610252578063313ce5671461025b57806332cb6b0c1461026a57806342966c681461027d57600080fd5b806306fdde031461015d578063095ea7b31461017b578063126b5bc91461019e57806312e8e2c3146101b357806315a09e1c146101c657806318160ddd146101ff575b600080fd5b6101656103c0565b6040516101729190610e72565b60405180910390f35b61018e610189366004610edd565b610452565b6040519015158152602001610172565b6101b16101ac366004610f16565b61046c565b005b6101b16101c1366004610f5c565b610709565b61018e6101d4366004610edd565b6001600160a01b03919091166000908152600860209081526040808320938352929052205460ff1690565b6002545b604051908152602001610172565b61018e61021f366004610f75565b610768565b61018e610232366004610edd565b600860209081526000928352604080842090915290825290205460ff1681565b61020360095481565b60405160128152602001610172565b6102036b033b2e3c9fd0803ce800000081565b6101b161028b366004610f5c565b61078c565b61020361029e366004610fb1565b6001600160a01b031660009081526020819052604090205490565b6101b1610799565b6101b16102cf366004610edd565b6107ad565b6102036102e2366004610fd3565b600760209081526000938452604080852082529284528284209052825290205481565b6005546040516001600160a01b039091168152602001610172565b6101656107c6565b610203610336366004610fd3565b6107d5565b6101b1610349366004610f5c565b610834565b61018e61035c366004610edd565b61093f565b61020361036f36600461100f565b6001600160a01b03918216600090815260016020908152604080832093909416825291909152205490565b6101b16103a8366004610edd565b61094d565b6101b16103bb366004610fb1565b610a39565b6060600380546103cf90611042565b80601f01602080910402602001604051908101604052809291908181526020018280546103fb90611042565b80156104485780601f1061041d57610100808354040283529160200191610448565b820191906000526020600020905b81548152906001019060200180831161042b57829003601f168201915b5050505050905090565b600033610460818585610a74565b60019150505b92915050565b610474610a86565b61047c610ab3565b6b033b2e3c9fd0803ce80000008361049360025490565b61049d9190611092565b11156104c45760405162461bcd60e51b81526004016104bb906110a5565b60405180910390fd5b600083116104e45760405162461bcd60e51b81526004016104bb906110e6565b6001600160a01b038416600090815260086020908152604080832085845290915290205460ff16158061056c57506001600160a01b03841660009081526007602090815260408083208584529091528120908260048111156105485761054861112b565b60048111156105595761055961112b565b8152602001908152602001600020546000145b6105c45760405162461bcd60e51b8152602060048201526024808201527f43726561746f72546f6b656e3a2052657761726420616c726561647920636c616044820152631a5b595960e21b60648201526084016104bb565b6000612710600954856105d79190611141565b6105e19190611158565b905060006105ef828661117a565b90506105fb8682610add565b6106166106106005546001600160a01b031690565b83610add565b6001600160a01b03861660009081526007602090815260408083208784529091528120829185600481111561064d5761064d61112b565b600481111561065e5761065e61112b565b815260208082019290925260409081016000908120939093556001600160a01b03891680845260088352818420888552835292819020805460ff19166001179055805184815291820181905260119082015270195b99d859d95b595b9d17dc995dd85c99607a1b60608201527f9d89e36eadf856db0ad9ffb5a569e07f95634dddd9501141ecf04820484ad0dc9060800160405180910390a250506107036001600655565b50505050565b610711610a86565b6103e88111156107635760405162461bcd60e51b815260206004820152601a60248201527f43726561746f72546f6b656e3a2046656520746f6f206869676800000000000060448201526064016104bb565b600955565b600033610776858285610b13565b610781858585610b8c565b506001949350505050565b6107963382610beb565b50565b6107a1610a86565b6107ab6000610c21565b565b6107b8823383610b13565b6107c28282610beb565b5050565b6060600480546103cf90611042565b6001600160a01b038316600090815260076020908152604080832085845290915281208183600481111561080b5761080b61112b565b600481111561081c5761081c61112b565b81526020019081526020016000205490509392505050565b61083c610ab3565b6000811161085c5760405162461bcd60e51b81526004016104bb906110e6565b336000908152602081905260409020548111156108c65760405162461bcd60e51b815260206004820152602260248201527f43726561746f72546f6b656e3a20496e73756666696369656e742062616c616e604482015261636560f01b60648201526084016104bb565b6108d03382610beb565b336001600160a01b03167ffad31924d655455395c87544c8aa1ffdb5a7505a22a3c2e03f28003b6556a75f8260405161092d918152604060208201819052600a90820152693932b232b6b83a34b7b760b11b606082015260800190565b60405180910390a26107966001600655565b600033610460818585610b8c565b610955610a86565b61095d610ab3565b6b033b2e3c9fd0803ce80000008161097460025490565b61097e9190611092565b111561099c5760405162461bcd60e51b81526004016104bb906110a5565b600081116109bc5760405162461bcd60e51b81526004016104bb906110e6565b6109c68282610add565b816001600160a01b03167f9d89e36eadf856db0ad9ffb5a569e07f95634dddd9501141ecf04820484ad0dc82604051610a27918152604060208201819052600e908201526d18dbdb9d195b9d17dc995dd85c9960921b606082015260800190565b60405180910390a26107c26001600655565b610a41610a86565b6001600160a01b038116610a6b57604051631e4fbdf760e01b8152600060048201526024016104bb565b61079681610c21565b610a818383836001610c73565b505050565b6005546001600160a01b031633146107ab5760405163118cdaa760e01b81523360048201526024016104bb565b600260065403610ad657604051633ee5aeb560e01b815260040160405180910390fd5b6002600655565b6001600160a01b038216610b075760405163ec442f0560e01b8152600060048201526024016104bb565b6107c260008383610d48565b6001600160a01b038381166000908152600160209081526040808320938616835292905220546000198110156107035781811015610b7d57604051637dc7a0d960e11b81526001600160a01b038416600482015260248101829052604481018390526064016104bb565b61070384848484036000610c73565b6001600160a01b038316610bb657604051634b637e8f60e11b8152600060048201526024016104bb565b6001600160a01b038216610be05760405163ec442f0560e01b8152600060048201526024016104bb565b610a81838383610d48565b6001600160a01b038216610c1557604051634b637e8f60e11b8152600060048201526024016104bb565b6107c282600083610d48565b600580546001600160a01b038381166001600160a01b0319831681179093556040519116919082907f8be0079c531659141344cd1fd0a4f28419497f9722a3daafe3b4186f6b6457e090600090a35050565b6001600160a01b038416610c9d5760405163e602df0560e01b8152600060048201526024016104bb565b6001600160a01b038316610cc757604051634a1406b160e11b8152600060048201526024016104bb565b6001600160a01b038085166000908152600160209081526040808320938716835292905220829055801561070357826001600160a01b0316846001600160a01b03167f8c5be1e5ebec7d5bd14f71427d1e84f3dd0314c0f7b2291e5b200ac8c7c3b92584604051610d3a91815260200190565b60405180910390a350505050565b6001600160a01b038316610d73578060026000828254610d689190611092565b90915550610de59050565b6001600160a01b03831660009081526020819052604090205481811015610dc65760405163391434e360e21b81526001600160a01b038516600482015260248101829052604481018390526064016104bb565b6001600160a01b03841660009081526020819052604090209082900390555b6001600160a01b038216610e0157600280548290039055610e20565b6001600160a01b03821660009081526020819052604090208054820190555b816001600160a01b0316836001600160a01b03167fddf252ad1be2c89b69c2b068fc378daa952ba7f163c4a11628f55a4df523b3ef83604051610e6591815260200190565b60405180910390a3505050565b60006020808352835180602085015260005b81811015610ea057858101830151858201604001528201610e84565b506000604082860101526040601f19601f8301168501019250505092915050565b80356001600160a01b0381168114610ed857600080fd5b919050565b60008060408385031215610ef057600080fd5b610ef983610ec1565b946020939093013593505050565b803560058110610ed857600080fd5b60008060008060808587031215610f2c57600080fd5b610f3585610ec1565b93506020850135925060408501359150610f5160608601610f07565b905092959194509250565b600060208284031215610f6e57600080fd5b5035919050565b600080600060608486031215610f8a57600080fd5b610f9384610ec1565b9250610fa160208501610ec1565b9150604084013590509250925092565b600060208284031215610fc357600080fd5b610fcc82610ec1565b9392505050565b600080600060608486031215610fe857600080fd5b610ff184610ec1565b92506020840135915061100660408501610f07565b90509250925092565b6000806040838503121561102257600080fd5b61102b83610ec1565b915061103960208401610ec1565b90509250929050565b600181811c9082168061105657607f821691505b60208210810361107657634e487b7160e01b600052602260045260246000fd5b50919050565b634e487b7160e01b600052601160045260246000fd5b808201808211156104665761046661107c565b60208082526021908201527f43726561746f72546f6b656e3a204d617820737570706c7920657863656564656040820152601960fa1b606082015260800190565b60208082526025908201527f43726561746f72546f6b656e3a20416d6f756e74206d75737420626520706f73604082015264697469766560d81b606082015260800190565b634e487b7160e01b600052602160045260246000fd5b80820281158282048414176104665761046661107c565b60008261117557634e487b7160e01b600052601260045260246000fd5b500490565b818103818111156104665761046661107c56fea264697066735822122044a7db09061e75eb7af43eaa91ce12a040b659eccb298224980502cab8f2085564736f6c63430008180033",
  "linkReferences": {},
  "deployedLinkReferences": {}
}