{
  "_format": "hh-sol-artifact-1",
  "contractName": "RevenueSplitter",
  "sourceName": "contracts/RevenueSplitter.sol",
  "abi": [
    {
      "inputs": [
        {
          "internalType": "address",
          "name": "_platformWallet",
          "type": "address"
        }
      ],
      "stateMutability": "nonpayable",
      "type": "constructor"
    },
    {
      "inputs": [],
      "name": "FailedCall",
      "type": "error"
    },
    {
      "inputs": [
        {
          "internalType": "uint256",
          "name": "balance",
          "type": "uint256"
        },
        {
          "internalType": "uint256",
          "name": "needed",
          "type": "uint256"
        }
      ],
      "name": "InsufficientBalance",
      "type": "error"
    },
    {
      "inputs": [
        {
          "internalType": "address",
          "name": "owner",
          "type": "address"
        }
      ],
      "name": "OwnableInvalidOwner",
      "type": "error"
    },
    {
      "inputs": [
        {
          "internalType": "address",
          "name": "account",
          "type": "address"
        }
      ],
      "name": "OwnableUnauthorizedAccount",
      "type": "error"
    },
    {
      "inputs": [],
      "name": "ReentrancyGuardReentrantCall",
      "type": "error"
    },
    {
      "anonymous": false,
      "inputs": [
        {
          "indexed": true,
          "internalType": "address",
          "name": "previousOwner",
          "type": "address"
        },
        {
          "indexed": true,
          "internalType": "address",
          "name": "newOwner",
          "type": "address"
        }
      ],
      "name": "OwnershipTransferred",
      "type": "event"
    },
    {
      "anonymous": false,
      "inputs": [
        {
          "indexed": true,
          "internalType": "bytes32",
          "name": "contentId",
          "type": "bytes32"
        },
        {
          "indexed": true,
          "internalType": "address",
          "name": "payer",
          "type": "address"
        },
        {
          "indexed": false,
          "internalType": "uint256",
          "name": "totalAmount",
          "type": "uint256"
        },
        {
          "indexed": false,
          "internalType": "address",
          "name": "token",
          "type": "address"
        }
      ],
      "name": "RevenueSplit",
      "type": "event"
    },
    {
      "anonymous": false,
      "inputs": [
        {
          "indexed": true,
          "internalType": "bytes32",
          "name": "contentId",
          "type": "bytes32"
        },
        {
          "indexed": false,
          "internalType": "address[]",
          "name": "recipients",
          "type": "address[]"
        },
        {
          "indexed": false,
          "internalType": "uint256[]",
          "name": "percentages",
          "type": "uint256[]"
        }
      ],
      "name": "SplitUpdated",
      "type": "event"
    },
    {
      "inputs": [
        {
          "internalType": "bytes32",
          "name": "contentId",
          "type": "bytes32"
        }
      ],
      "name": "deactivateSplit",
      "outputs": [],
      "stateMutability": "nonpayable",
      "type": "function"
    },
    {
      "inputs": [
        {
          "internalType": "address",
          "name": "token",
          "type": "address"
        },
        {
          "internalType": "uint256",
          "name": "amount",
          "type": "uint256"
        }
      ],
      "name": "emergencyWithdraw",
      "outputs": [],
      "stateMutability": "nonpayable",
      "type": "function"
    },
    {
      "inputs": [
        {
          "internalType": "bytes32",
          "name": "contentId",
          "type": "bytes32"
        }
      ],
      "name": "getSplit",
      "outputs": [
        {
          "internalType": "address[]",
          "name": "recipients",
          "type": "address[]"
        },
        {
          "internalType": "uint256[]",
          "name": "percentages",
          "type": "uint256[]"
        },
        {
          "internalType": "bool",
          "name": "isActive",
          "type": "bool"
        }
      ],
      "stateMutability": "view",
      "type": "function"
    },
    {
      "inputs": [],
      "name": "owner",
      "outputs": [
        {
          "internalType": "address",
          "name": "",
          "type": "address"
        }
      ],
      "stateMutability": "view",
      "type": "function"
    },
    {
      "inputs": [],
      "name": "platformFee",
      "outputs": [
        {
          "internalType": "uint256",
          "name": "",
          "type": "uint256"
        }
      ],
      "stateMutability": "view",
      "type": "function"
    },
    {
      "inputs": [],
      "name": "platformWallet",
      "outputs": [
        {
          "internalType": "address",
          "name": "",
          "type": "address"
        }
      ],
      "stateMutability": "view",
      "type": "function"
    },
    {
      "inputs": [],
      "name": "renounceOwnership",
      "outputs": [],
      "stateMutability": "nonpayable",
      "type": "function"
    },
    {
      "inputs": [
        {
          "internalType": "uint256",
          "name": "newFee",
          "type": "uint256"
        }
      ],
      "name": "setPlatformFee",
      "outputs": [],
      "stateMutability": "nonpayable",
      "type": "function"
    },
    {
      "inputs": [
        {
          "internalType": "address",
          "name": "newWallet",
          "type": "address"
        }
      ],
      "name": "setPlatformWallet",
      "outputs": [],
      "stateMutability": "nonpayable",
      "type": "function"
    },
    {
      "inputs": [
        {
          "internalType": "bytes32",
          "name": "contentId",
          "type": "bytes32"
        },
        {
          "internalType": "address[]",
          "name": "recipients",
          "type": "address[]"
        },
        {
          "internalType": "uint256[]",
          "name": "percentages",
          "type": "uint256[]"
        }
      ],
      "name": "setSplit",
      "outputs": [],
      "stateMutability": "nonpayable",
      "type": "function"
    },
    {
      "inputs": [
        {
          "internalType": "bytes32",
          "name": "contentId",
          "type": "bytes32"
        }
      ],
      "name": "splitRevenue",
      "outputs": [],
      "stateMutability": "payable",
      "type": "function"
    },
    {
      "inputs": [
        {
          "internalType": "bytes32",
          "name": "contentId",
          "type": "bytes32"
        },
        {
          "internalType": "address",
          "name": "token",
          "type": "address"
        },
        {
          "internalType": "uint256",
          "name": "amount",
          "type": "uint256"
        }
      ],
      "name": "splitTokenRevenue",
      "outputs": [],
      "stateMutability": "nonpayable",
      "type": "function"
    },
    {
      "inputs": [
        {
          "internalType": "bytes32",
          "name": "",
          "type": "bytes32"
        }
      ],
      "name": "splits",
      "outputs": [
        {
          "internalType": "uint256",
          "name": "totalPercentage",
          "type": "uint256"
        },
        {
          "internalType": "bool",
          "name": "isActive",
          "type": "bool"
        }
      ],
      "stateMutability": "view",
      "type": "function"
    },
    {
      "inputs": [
        {
          "internalType": "address",
          "name": "newOwner",
          "type": "address"
        }
      ],
      "name": "transferOwnership",
      "outputs": [],
      "stateMutability": "nonpayable",
      "type": "function"
    },
    {
      "stateMutability": "payable",
      "type": "receive"
    }
  ],
  "bytecode": "0x60806040526101f460045534801561001657600080fd5b50604051620016253803806200162583398101604081905261003791610148565b338061005e57604051631e4fbdf760e01b8152600060048201526024015b60405180910390fd5b610067816100f8565b50600180556001600160a01b0381166100d35760405162461bcd60e51b815260206004820152602860248201527f526576656e756553706c69747465723a20496e76616c696420706c6174666f726044820152671b481dd85b1b195d60c21b6064820152608401610055565b600380546001600160a01b0319166001600160a01b0392909216919091179055610178565b600080546001600160a01b038381166001600160a01b0319831681178455604051919092169283917f8be0079c531659141344cd1fd0a4f28419497f9722a3daafe3b4186f6b6457e09190a35050565b60006020828403121561015a57600080fd5b81516001600160a01b038116811461017157600080fd5b9392505050565b61149d80620001886000396000f3fe6080604052600436106100e15760003560e01c80638da5cb5b1161007f578063d4d3ac2511610059578063d4d3ac251461027f578063e35b2d8a1461029f578063f2fde38b146102b2578063fa2af9da146102d257600080fd5b80638da5cb5b146101dc57806395ccea671461020e578063a72bc0641461022e57600080fd5b80635891fa36116100bb5780635891fa36146101585780636f388d8614610178578063715018a6146101a75780638831e9cf146101bc57600080fd5b806312e8e2c3146100ed57806326232a2e1461010f5780632d3e27961461013857600080fd5b366100e857005b600080fd5b3480156100f957600080fd5b5061010d6101083660046110e8565b6102f2565b005b34801561011b57600080fd5b5061012560045481565b6040519081526020015b60405180910390f35b34801561014457600080fd5b5061010d61015336600461111d565b610356565b34801561016457600080fd5b5061010d6101733660046110e8565b6106ac565b34801561018457600080fd5b506101986101933660046110e8565b6106cf565b60405161012f93929190611152565b3480156101b357600080fd5b5061010d6107ad565b3480156101c857600080fd5b5061010d6101d73660046111e5565b6107c1565b3480156101e857600080fd5b506000546001600160a01b03165b6040516001600160a01b03909116815260200161012f565b34801561021a57600080fd5b5061010d610229366004611207565b610841565b34801561023a57600080fd5b5061026a6102493660046110e8565b60026020819052600091825260409091209081015460039091015460ff1682565b6040805192835290151560208301520161012f565b34801561028b57600080fd5b5061010d61029a36600461127d565b610912565b61010d6102ad3660046110e8565b610cef565b3480156102be57600080fd5b5061010d6102cd3660046111e5565b610e93565b3480156102de57600080fd5b506003546101f6906001600160a01b031681565b6102fa610ece565b6103e88111156103515760405162461bcd60e51b815260206004820152601d60248201527f526576656e756553706c69747465723a2046656520746f6f206869676800000060448201526064015b60405180910390fd5b600455565b61035e610efb565b6001600160a01b0382166103c35760405162461bcd60e51b815260206004820152602660248201527f526576656e756553706c69747465723a20496e76616c696420746f6b656e206160448201526564647265737360d01b6064820152608401610348565b600081116104135760405162461bcd60e51b815260206004820152601f60248201527f526576656e756553706c69747465723a20496e76616c696420616d6f756e74006044820152606401610348565b6000838152600260205260409020600381015460ff166104455760405162461bcd60e51b8152600401610348906112f7565b6040516323b872dd60e01b8152336004820152306024820152604481018390526001600160a01b038416906323b872dd906064016020604051808303816000875af1158015610498573d6000803e3d6000fd5b505050506040513d601f19601f820116820180604052508101906104bc9190611338565b506000612710600454846104d09190611370565b6104da919061138d565b905060006104e882856113af565b60035460405163a9059cbb60e01b81526001600160a01b0391821660048201526024810185905291925086169063a9059cbb906044016020604051808303816000875af115801561053d573d6000803e3d6000fd5b505050506040513d601f19601f820116820180604052508101906105619190611338565b5060005b8354811015610655576000612710856001018381548110610588576105886113c2565b90600052602060002001548461059e9190611370565b6105a8919061138d565b9050866001600160a01b031663a9059cbb8660000184815481106105ce576105ce6113c2565b60009182526020909120015460405160e083901b6001600160e01b03191681526001600160a01b039091166004820152602481018490526044016020604051808303816000875af1158015610627573d6000803e3d6000fd5b505050506040513d601f19601f8201168201806040525081019061064b9190611338565b5050600101610565565b50604080518581526001600160a01b0387166020820152339188917f6efb84db0544a18c0b960e75c8b8636f45b775e6fcc21dd35230f014bc5b856f910160405180910390a35050506106a760018055565b505050565b6106b4610ece565b6000908152600260205260409020600301805460ff19169055565b600081815260026020908152604080832060038101548154835181860281018601909452808452606095869590948493600185019360ff9091169285919083018282801561074657602002820191906000526020600020905b81546001600160a01b03168152600190910190602001808311610728575b505050505092508180548060200260200160405190810160405280929190818152602001828054801561079857602002820191906000526020600020905b815481526020019060010190808311610784575b50505050509150935093509350509193909250565b6107b5610ece565b6107bf6000610f25565b565b6107c9610ece565b6001600160a01b03811661081f5760405162461bcd60e51b815260206004820152601f60248201527f526576656e756553706c69747465723a20496e76616c69642077616c6c6574006044820152606401610348565b600380546001600160a01b0319166001600160a01b0392909216919091179055565b610849610ece565b6001600160a01b0382166108805761087c8161086d6000546001600160a01b031690565b6001600160a01b031690610f75565b5050565b816001600160a01b031663a9059cbb6108a16000546001600160a01b031690565b6040516001600160e01b031960e084901b1681526001600160a01b039091166004820152602481018490526044016020604051808303816000875af11580156108ee573d6000803e3d6000fd5b505050506040513d601f19601f820116820180604052508101906106a79190611338565b61091a610ece565b8281146109795760405162461bcd60e51b815260206004820152602760248201527f526576656e756553706c69747465723a20417272617973206c656e677468206d6044820152660d2e6dac2e8c6d60cb1b6064820152608401610348565b826109c65760405162461bcd60e51b815260206004820152601e60248201527f526576656e756553706c69747465723a204e6f20726563697069656e747300006044820152606401610348565b600a831115610a235760405162461bcd60e51b8152602060048201526024808201527f526576656e756553706c69747465723a20546f6f206d616e7920726563697069604482015263656e747360e01b6064820152608401610348565b6000805b82811015610b5b576000848483818110610a4357610a436113c2565b9050602002013511610aa35760405162461bcd60e51b815260206004820152602360248201527f526576656e756553706c69747465723a20496e76616c69642070657263656e7460448201526261676560e81b6064820152608401610348565b6000868683818110610ab757610ab76113c2565b9050602002016020810190610acc91906111e5565b6001600160a01b031603610b2d5760405162461bcd60e51b815260206004820152602260248201527f526576656e756553706c69747465723a20496e76616c696420726563697069656044820152611b9d60f21b6064820152608401610348565b838382818110610b3f57610b3f6113c2565b9050602002013582610b5191906113d8565b9150600101610a27565b508061271014610bc35760405162461bcd60e51b815260206004820152602d60248201527f526576656e756553706c69747465723a2050657263656e7461676573206d757360448201526c742073756d20746f203130302560981b6064820152608401610348565b6040518060800160405280868680806020026020016040519081016040528093929190818152602001838360200280828437600092019190915250505090825250604080516020868102828101820190935286825292830192909187918791829185019084908082843760009201829052509385525050506020808301859052600160409384015289825260028152919020825180519192610c6a92849290910190611033565b506020828101518051610c839260018501920190611098565b5060408281015160028301556060909201516003909101805460ff19169115159190911790555186907f9fde99935d7c97eb7697812ed7192d86fad79d40f4a7e27e15408250c98c495090610cdf9088908890889088906113eb565b60405180910390a2505050505050565b610cf7610efb565b6000818152600260205260409020600381015460ff16610d295760405162461bcd60e51b8152600401610348906112f7565b60003411610d795760405162461bcd60e51b815260206004820152601c60248201527f526576656e756553706c69747465723a204e6f204554482073656e74000000006044820152606401610348565b600454349060009061271090610d8f9084611370565b610d99919061138d565b90506000610da782846113af565b600354909150610dc0906001600160a01b031683610f75565b60005b8454811015610e45576000612710866001018381548110610de657610de66113c2565b906000526020600020015484610dfc9190611370565b610e06919061138d565b9050610e3c81876000018481548110610e2157610e216113c2565b6000918252602090912001546001600160a01b031690610f75565b50600101610dc3565b506040805184815260006020820152339187917f6efb84db0544a18c0b960e75c8b8636f45b775e6fcc21dd35230f014bc5b856f910160405180910390a350505050610e9060018055565b50565b610e9b610ece565b6001600160a01b038116610ec557604051631e4fbdf760e01b815260006004820152602401610348565b610e9081610f25565b6000546001600160a01b031633146107bf5760405163118cdaa760e01b8152336004820152602401610348565b600260015403610f1e57604051633ee5aeb560e01b815260040160405180910390fd5b6002600155565b600080546001600160a01b038381166001600160a01b0319831681178455604051919092169283917f8be0079c531659141344cd1fd0a4f28419497f9722a3daafe3b4186f6b6457e09190a35050565b80471015610f9f5760405163cf47918160e01b815247600482015260248101829052604401610348565b600080836001600160a01b03168360405160006040518083038185875af1925050503d8060008114610fed576040519150601f19603f3d011682016040523d82523d6000602084013e610ff2565b606091505b509150915081611005576110058161100b565b50505050565b80511561101a57805160208201fd5b60405163d6bda27560e01b815260040160405180910390fd5b828054828255906000526020600020908101928215611088579160200282015b8281111561108857825182546001600160a01b0319166001600160a01b03909116178255602090920191600190910190611053565b506110949291506110d3565b5090565b828054828255906000526020600020908101928215611088579160200282015b828111156110885782518255916020019190600101906110b8565b5b8082111561109457600081556001016110d4565b6000602082840312156110fa57600080fd5b5035919050565b80356001600160a01b038116811461111857600080fd5b919050565b60008060006060848603121561113257600080fd5b8335925061114260208501611101565b9150604084013590509250925092565b606080825284519082018190526000906020906080840190828801845b828110156111945781516001600160a01b03168452928401929084019060010161116f565b5050508381038285015285518082528683019183019060005b818110156111c9578351835292840192918401916001016111ad565b5050851515604086015292506111dd915050565b949350505050565b6000602082840312156111f757600080fd5b61120082611101565b9392505050565b6000806040838503121561121a57600080fd5b61122383611101565b946020939093013593505050565b60008083601f84011261124357600080fd5b50813567ffffffffffffffff81111561125b57600080fd5b6020830191508360208260051b850101111561127657600080fd5b9250929050565b60008060008060006060868803121561129557600080fd5b85359450602086013567ffffffffffffffff808211156112b457600080fd5b6112c089838a01611231565b909650945060408801359150808211156112d957600080fd5b506112e688828901611231565b969995985093965092949392505050565b60208082526021908201527f526576656e756553706c69747465723a2053706c6974206e6f742061637469766040820152606560f81b606082015260800190565b60006020828403121561134a57600080fd5b8151801515811461120057600080fd5b634e487b7160e01b600052601160045260246000fd5b80820281158282048414176113875761138761135a565b92915050565b6000826113aa57634e487b7160e01b600052601260045260246000fd5b500490565b818103818111156113875761138761135a565b634e487b7160e01b600052603260045260246000fd5b808201808211156113875761138761135a565b6040808252810184905260008560608301825b8781101561142c576001600160a01b0361141784611101565b168252602092830192909101906001016113fe565b5083810360208501528481526001600160fb1b0385111561144c57600080fd5b8460051b91508186602083013701602001969550505050505056fea264697066735822122031b96b6d358282326ae98f4e76b5f69acf94966a8ae5ab70cb081dd10c44146b64736f6c63430008180033",
  "linkReferences": {},
  "deployedLinkReferences": {}
}